{
  "contractName": "BavaMasterFarmerV1",
  "abi": [
    {
      "inputs": [
        {
          "internalType": "contract IBavaToken",
          "name": "_IBava",
          "type": "address"
        },
        {
          "internalType": "address",
          "name": "_devaddr",
          "type": "address"
        },
        {
          "internalType": "address",
          "name": "_futureTreasuryaddr",
          "type": "address"
        },
        {
          "internalType": "address",
          "name": "_advisoraddr",
          "type": "address"
        },
        {
          "internalType": "address",
          "name": "_founderaddr",
          "type": "address"
        },
        {
          "internalType": "uint256",
          "name": "_userDepFee",
          "type": "uint256"
        },
        {
          "internalType": "uint256[]",
          "name": "_blockDeltaStartStage",
          "type": "uint256[]"
        },
        {
          "internalType": "uint256[]",
          "name": "_blockDeltaEndStage",
          "type": "uint256[]"
        },
        {
          "internalType": "uint256[]",
          "name": "_userFeeStage",
          "type": "uint256[]"
        }
      ],
      "stateMutability": "nonpayable",
      "type": "constructor"
    },
    {
      "anonymous": false,
      "inputs": [
        {
          "indexed": true,
          "internalType": "address",
          "name": "user",
          "type": "address"
        },
        {
          "indexed": true,
          "internalType": "uint256",
          "name": "pid",
          "type": "uint256"
        },
        {
          "indexed": false,
          "internalType": "uint256",
          "name": "amount",
          "type": "uint256"
        }
      ],
      "name": "Deposit",
      "type": "event"
    },
    {
      "anonymous": false,
      "inputs": [
        {
          "indexed": false,
          "internalType": "uint256",
          "name": "pid",
          "type": "uint256"
        },
        {
          "indexed": false,
          "internalType": "bool",
          "name": "newValue",
          "type": "bool"
        }
      ],
      "name": "DepositsEnabled",
      "type": "event"
    },
    {
      "anonymous": false,
      "inputs": [
        {
          "indexed": true,
          "internalType": "address",
          "name": "user",
          "type": "address"
        },
        {
          "indexed": true,
          "internalType": "uint256",
          "name": "pid",
          "type": "uint256"
        },
        {
          "indexed": false,
          "internalType": "uint256",
          "name": "amount",
          "type": "uint256"
        },
        {
          "indexed": false,
          "internalType": "uint256",
          "name": "devAmount",
          "type": "uint256"
        }
      ],
      "name": "EmergencyWithdraw",
      "type": "event"
    },
    {
      "anonymous": false,
      "inputs": [
        {
          "indexed": true,
          "internalType": "address",
          "name": "previousOwner",
          "type": "address"
        },
        {
          "indexed": true,
          "internalType": "address",
          "name": "newOwner",
          "type": "address"
        }
      ],
      "name": "OwnershipTransferred",
      "type": "event"
    },
    {
      "anonymous": false,
      "inputs": [
        {
          "indexed": true,
          "internalType": "address",
          "name": "user",
          "type": "address"
        },
        {
          "indexed": true,
          "internalType": "uint256",
          "name": "pid",
          "type": "uint256"
        },
        {
          "indexed": false,
          "internalType": "uint256",
          "name": "amount",
          "type": "uint256"
        },
        {
          "indexed": false,
          "internalType": "uint256",
          "name": "lockAmount",
          "type": "uint256"
        }
      ],
      "name": "SendBavaReward",
      "type": "event"
    },
    {
      "anonymous": false,
      "inputs": [
        {
          "indexed": true,
          "internalType": "address",
          "name": "user",
          "type": "address"
        },
        {
          "indexed": true,
          "internalType": "uint256",
          "name": "pid",
          "type": "uint256"
        },
        {
          "indexed": false,
          "internalType": "uint256",
          "name": "amount",
          "type": "uint256"
        }
      ],
      "name": "Withdraw",
      "type": "event"
    },
    {
      "inputs": [],
      "name": "Bava",
      "outputs": [
        {
          "internalType": "contract IBavaToken",
          "name": "",
          "type": "address"
        }
      ],
      "stateMutability": "view",
      "type": "function"
    },
    {
      "inputs": [],
      "name": "FINISH_BONUS_AT_BLOCK",
      "outputs": [
        {
          "internalType": "uint256",
          "name": "",
          "type": "uint256"
        }
      ],
      "stateMutability": "view",
      "type": "function"
    },
    {
      "inputs": [
        {
          "internalType": "uint256",
          "name": "",
          "type": "uint256"
        }
      ],
      "name": "HALVING_AT_BLOCK",
      "outputs": [
        {
          "internalType": "uint256",
          "name": "",
          "type": "uint256"
        }
      ],
      "stateMutability": "view",
      "type": "function"
    },
    {
      "inputs": [],
      "name": "PERCENT_FOR_ADR",
      "outputs": [
        {
          "internalType": "uint256",
          "name": "",
          "type": "uint256"
        }
      ],
      "stateMutability": "view",
      "type": "function"
    },
    {
      "inputs": [],
      "name": "PERCENT_FOR_DEV",
      "outputs": [
        {
          "internalType": "uint256",
          "name": "",
          "type": "uint256"
        }
      ],
      "stateMutability": "view",
      "type": "function"
    },
    {
      "inputs": [],
      "name": "PERCENT_FOR_FOUNDERS",
      "outputs": [
        {
          "internalType": "uint256",
          "name": "",
          "type": "uint256"
        }
      ],
      "stateMutability": "view",
      "type": "function"
    },
    {
      "inputs": [],
      "name": "PERCENT_FOR_FT",
      "outputs": [
        {
          "internalType": "uint256",
          "name": "",
          "type": "uint256"
        }
      ],
      "stateMutability": "view",
      "type": "function"
    },
    {
      "inputs": [],
      "name": "PERCENT_LOCK_BONUS_REWARD",
      "outputs": [
        {
          "internalType": "uint256",
          "name": "",
          "type": "uint256"
        }
      ],
      "stateMutability": "view",
      "type": "function"
    },
    {
      "inputs": [
        {
          "internalType": "uint256",
          "name": "",
          "type": "uint256"
        }
      ],
      "name": "REWARD_MULTIPLIER",
      "outputs": [
        {
          "internalType": "uint256",
          "name": "",
          "type": "uint256"
        }
      ],
      "stateMutability": "view",
      "type": "function"
    },
    {
      "inputs": [],
      "name": "REWARD_PER_BLOCK",
      "outputs": [
        {
          "internalType": "uint256",
          "name": "",
          "type": "uint256"
        }
      ],
      "stateMutability": "view",
      "type": "function"
    },
    {
      "inputs": [],
      "name": "START_BLOCK",
      "outputs": [
        {
          "internalType": "uint256",
          "name": "",
          "type": "uint256"
        }
      ],
      "stateMutability": "view",
      "type": "function"
    },
    {
      "inputs": [
        {
          "internalType": "uint256",
          "name": "_allocPoint",
          "type": "uint256"
        },
        {
          "internalType": "contract IERC20",
          "name": "_lpToken",
          "type": "address"
        },
        {
          "internalType": "bool",
          "name": "_withUpdate",
          "type": "bool"
        }
      ],
      "name": "add",
      "outputs": [],
      "stateMutability": "nonpayable",
      "type": "function"
    },
    {
      "inputs": [
        {
          "internalType": "address",
          "name": "_toAdd",
          "type": "address"
        }
      ],
      "name": "addAuthorized",
      "outputs": [],
      "stateMutability": "nonpayable",
      "type": "function"
    },
    {
      "inputs": [
        {
          "internalType": "address",
          "name": "_devaddr",
          "type": "address"
        },
        {
          "internalType": "address",
          "name": "_newFT",
          "type": "address"
        },
        {
          "internalType": "address",
          "name": "_newAdr",
          "type": "address"
        },
        {
          "internalType": "address",
          "name": "_newFounder",
          "type": "address"
        }
      ],
      "name": "addrUpdate",
      "outputs": [],
      "stateMutability": "nonpayable",
      "type": "function"
    },
    {
      "inputs": [],
      "name": "advisoraddr",
      "outputs": [
        {
          "internalType": "address",
          "name": "",
          "type": "address"
        }
      ],
      "stateMutability": "view",
      "type": "function"
    },
    {
      "inputs": [
        {
          "internalType": "address",
          "name": "",
          "type": "address"
        }
      ],
      "name": "authorized",
      "outputs": [
        {
          "internalType": "bool",
          "name": "",
          "type": "bool"
        }
      ],
      "stateMutability": "view",
      "type": "function"
    },
    {
      "inputs": [
        {
          "internalType": "uint256",
          "name": "",
          "type": "uint256"
        }
      ],
      "name": "blockDeltaEndStage",
      "outputs": [
        {
          "internalType": "uint256",
          "name": "",
          "type": "uint256"
        }
      ],
      "stateMutability": "view",
      "type": "function"
    },
    {
      "inputs": [
        {
          "internalType": "uint256",
          "name": "",
          "type": "uint256"
        }
      ],
      "name": "blockDeltaStartStage",
      "outputs": [
        {
          "internalType": "uint256",
          "name": "",
          "type": "uint256"
        }
      ],
      "stateMutability": "view",
      "type": "function"
    },
    {
      "inputs": [
        {
          "internalType": "uint256",
          "name": "_newFinish",
          "type": "uint256"
        }
      ],
      "name": "bonusFinishUpdate",
      "outputs": [],
      "stateMutability": "nonpayable",
      "type": "function"
    },
    {
      "inputs": [
        {
          "internalType": "uint256",
          "name": "_pid",
          "type": "uint256"
        }
      ],
      "name": "claimReward",
      "outputs": [],
      "stateMutability": "nonpayable",
      "type": "function"
    },
    {
      "inputs": [
        {
          "internalType": "uint256",
          "name": "_pid",
          "type": "uint256"
        },
        {
          "internalType": "uint256",
          "name": "_amount",
          "type": "uint256"
        }
      ],
      "name": "deposit",
      "outputs": [],
      "stateMutability": "nonpayable",
      "type": "function"
    },
    {
      "inputs": [],
      "name": "devaddr",
      "outputs": [
        {
          "internalType": "address",
          "name": "",
          "type": "address"
        }
      ],
      "stateMutability": "view",
      "type": "function"
    },
    {
      "inputs": [
        {
          "internalType": "uint256",
          "name": "_pid",
          "type": "uint256"
        }
      ],
      "name": "emergencyWithdraw",
      "outputs": [],
      "stateMutability": "nonpayable",
      "type": "function"
    },
    {
      "inputs": [],
      "name": "founderaddr",
      "outputs": [
        {
          "internalType": "address",
          "name": "",
          "type": "address"
        }
      ],
      "stateMutability": "view",
      "type": "function"
    },
    {
      "inputs": [],
      "name": "futureTreasuryaddr",
      "outputs": [
        {
          "internalType": "address",
          "name": "",
          "type": "address"
        }
      ],
      "stateMutability": "view",
      "type": "function"
    },
    {
      "inputs": [
        {
          "internalType": "uint256",
          "name": "_from",
          "type": "uint256"
        },
        {
          "internalType": "uint256",
          "name": "_to",
          "type": "uint256"
        }
      ],
      "name": "getMultiplier",
      "outputs": [
        {
          "internalType": "uint256",
          "name": "",
          "type": "uint256"
        }
      ],
      "stateMutability": "view",
      "type": "function"
    },
    {
      "inputs": [
        {
          "internalType": "uint256",
          "name": "_from",
          "type": "uint256"
        },
        {
          "internalType": "uint256",
          "name": "_to",
          "type": "uint256"
        },
        {
          "internalType": "uint256",
          "name": "_allocPoint",
          "type": "uint256"
        }
      ],
      "name": "getPoolReward",
      "outputs": [
        {
          "internalType": "uint256",
          "name": "forDev",
          "type": "uint256"
        },
        {
          "internalType": "uint256",
          "name": "forFarmer",
          "type": "uint256"
        },
        {
          "internalType": "uint256",
          "name": "forFT",
          "type": "uint256"
        },
        {
          "internalType": "uint256",
          "name": "forAdr",
          "type": "uint256"
        },
        {
          "internalType": "uint256",
          "name": "forFounders",
          "type": "uint256"
        }
      ],
      "stateMutability": "view",
      "type": "function"
    },
    {
      "inputs": [
        {
          "internalType": "uint256[]",
          "name": "_newHalving",
          "type": "uint256[]"
        }
      ],
      "name": "halvingUpdate",
      "outputs": [],
      "stateMutability": "nonpayable",
      "type": "function"
    },
    {
      "inputs": [
        {
          "internalType": "uint256",
          "name": "_rewardPerBlock",
          "type": "uint256"
        },
        {
          "internalType": "uint256",
          "name": "_startBlock",
          "type": "uint256"
        },
        {
          "internalType": "uint256",
          "name": "_halvingAfterBlock",
          "type": "uint256"
        }
      ],
      "name": "initPool",
      "outputs": [],
      "stateMutability": "nonpayable",
      "type": "function"
    },
    {
      "inputs": [],
      "name": "massUpdatePools",
      "outputs": [],
      "stateMutability": "nonpayable",
      "type": "function"
    },
    {
      "inputs": [],
      "name": "owner",
      "outputs": [
        {
          "internalType": "address",
          "name": "",
          "type": "address"
        }
      ],
      "stateMutability": "view",
      "type": "function"
    },
    {
      "inputs": [
        {
          "internalType": "uint256",
          "name": "_pid",
          "type": "uint256"
        },
        {
          "internalType": "address",
          "name": "_user",
          "type": "address"
        }
      ],
      "name": "pendingReward",
      "outputs": [
        {
          "internalType": "uint256",
          "name": "",
          "type": "uint256"
        }
      ],
      "stateMutability": "view",
      "type": "function"
    },
    {
      "inputs": [
        {
          "internalType": "uint256",
          "name": "_newlock",
          "type": "uint256"
        },
        {
          "internalType": "uint256",
          "name": "_newdev",
          "type": "uint256"
        },
        {
          "internalType": "uint256",
          "name": "_newft",
          "type": "uint256"
        },
        {
          "internalType": "uint256",
          "name": "_newadr",
          "type": "uint256"
        },
        {
          "internalType": "uint256",
          "name": "_newfounder",
          "type": "uint256"
        }
      ],
      "name": "percentUpdate",
      "outputs": [],
      "stateMutability": "nonpayable",
      "type": "function"
    },
    {
      "inputs": [
        {
          "internalType": "address",
          "name": "",
          "type": "address"
        }
      ],
      "name": "poolId1",
      "outputs": [
        {
          "internalType": "uint256",
          "name": "",
          "type": "uint256"
        }
      ],
      "stateMutability": "view",
      "type": "function"
    },
    {
      "inputs": [
        {
          "internalType": "uint256",
          "name": "",
          "type": "uint256"
        }
      ],
      "name": "poolInfo",
      "outputs": [
        {
          "internalType": "contract IERC20",
          "name": "lpToken",
          "type": "address"
        },
        {
          "internalType": "uint256",
          "name": "allocPoint",
          "type": "uint256"
        },
        {
          "internalType": "uint256",
          "name": "lastRewardBlock",
          "type": "uint256"
        },
        {
          "internalType": "uint256",
          "name": "accBavaPerShare",
          "type": "uint256"
        },
        {
          "internalType": "uint256",
          "name": "depositAmount",
          "type": "uint256"
        },
        {
          "internalType": "bool",
          "name": "deposits_enabled",
          "type": "bool"
        }
      ],
      "stateMutability": "view",
      "type": "function"
    },
    {
      "inputs": [],
      "name": "poolLength",
      "outputs": [
        {
          "internalType": "uint256",
          "name": "",
          "type": "uint256"
        }
      ],
      "stateMutability": "view",
      "type": "function"
    },
    {
      "inputs": [],
      "name": "previousOwner",
      "outputs": [
        {
          "internalType": "address",
          "name": "",
          "type": "address"
        }
      ],
      "stateMutability": "view",
      "type": "function"
    },
    {
      "inputs": [
        {
          "internalType": "address",
          "name": "newOwner",
          "type": "address"
        }
      ],
      "name": "reclaimOwnership",
      "outputs": [],
      "stateMutability": "nonpayable",
      "type": "function"
    },
    {
      "inputs": [
        {
          "internalType": "address",
          "name": "_toRemove",
          "type": "address"
        }
      ],
      "name": "removeAuthorized",
      "outputs": [],
      "stateMutability": "nonpayable",
      "type": "function"
    },
    {
      "inputs": [],
      "name": "renounceOwnership",
      "outputs": [],
      "stateMutability": "nonpayable",
      "type": "function"
    },
    {
      "inputs": [
        {
          "internalType": "address",
          "name": "token",
          "type": "address"
        },
        {
          "internalType": "uint256",
          "name": "amount",
          "type": "uint256"
        },
        {
          "internalType": "address",
          "name": "_to",
          "type": "address"
        }
      ],
      "name": "rescueDeployedFunds",
      "outputs": [],
      "stateMutability": "nonpayable",
      "type": "function"
    },
    {
      "inputs": [
        {
          "internalType": "uint256",
          "name": "_pid",
          "type": "uint256"
        },
        {
          "internalType": "address",
          "name": "_user",
          "type": "address"
        },
        {
          "internalType": "uint256",
          "name": "_block",
          "type": "uint256"
        }
      ],
      "name": "reviseDeposit",
      "outputs": [],
      "stateMutability": "nonpayable",
      "type": "function"
    },
    {
      "inputs": [
        {
          "internalType": "uint256",
          "name": "_pid",
          "type": "uint256"
        },
        {
          "internalType": "address",
          "name": "_user",
          "type": "address"
        },
        {
          "internalType": "uint256",
          "name": "_block",
          "type": "uint256"
        }
      ],
      "name": "reviseWithdraw",
      "outputs": [],
      "stateMutability": "nonpayable",
      "type": "function"
    },
    {
      "inputs": [
        {
          "internalType": "uint256[]",
          "name": "_newMulReward",
          "type": "uint256[]"
        }
      ],
      "name": "rewardMulUpdate",
      "outputs": [],
      "stateMutability": "nonpayable",
      "type": "function"
    },
    {
      "inputs": [
        {
          "internalType": "uint256",
          "name": "_newReward",
          "type": "uint256"
        }
      ],
      "name": "rewardUpdate",
      "outputs": [],
      "stateMutability": "nonpayable",
      "type": "function"
    },
    {
      "inputs": [
        {
          "internalType": "uint256",
          "name": "_pid",
          "type": "uint256"
        },
        {
          "internalType": "contract IERC20",
          "name": "_lpToken",
          "type": "address"
        },
        {
          "internalType": "uint256",
          "name": "_allocPoint",
          "type": "uint256"
        },
        {
          "internalType": "bool",
          "name": "_withUpdate",
          "type": "bool"
        }
      ],
      "name": "set",
      "outputs": [],
      "stateMutability": "nonpayable",
      "type": "function"
    },
    {
      "inputs": [
        {
          "internalType": "uint256",
          "name": "_usrDepFees",
          "type": "uint256"
        }
      ],
      "name": "setDevDepFee",
      "outputs": [],
      "stateMutability": "nonpayable",
      "type": "function"
    },
    {
      "inputs": [
        {
          "internalType": "uint256[]",
          "name": "_blockEnds",
          "type": "uint256[]"
        }
      ],
      "name": "setStageEnds",
      "outputs": [],
      "stateMutability": "nonpayable",
      "type": "function"
    },
    {
      "inputs": [
        {
          "internalType": "uint256[]",
          "name": "_blockStarts",
          "type": "uint256[]"
        }
      ],
      "name": "setStageStarts",
      "outputs": [],
      "stateMutability": "nonpayable",
      "type": "function"
    },
    {
      "inputs": [
        {
          "internalType": "uint256[]",
          "name": "_userFees",
          "type": "uint256[]"
        }
      ],
      "name": "setUserFeeStage",
      "outputs": [],
      "stateMutability": "nonpayable",
      "type": "function"
    },
    {
      "inputs": [
        {
          "internalType": "uint256",
          "name": "_newstarblock",
          "type": "uint256"
        }
      ],
      "name": "starblockUpdate",
      "outputs": [],
      "stateMutability": "nonpayable",
      "type": "function"
    },
    {
      "inputs": [],
      "name": "totalAllocPoint",
      "outputs": [
        {
          "internalType": "uint256",
          "name": "",
          "type": "uint256"
        }
      ],
      "stateMutability": "view",
      "type": "function"
    },
    {
      "inputs": [
        {
          "internalType": "address",
          "name": "newOwner",
          "type": "address"
        }
      ],
      "name": "transferOwnership",
      "outputs": [],
      "stateMutability": "nonpayable",
      "type": "function"
    },
    {
      "inputs": [
        {
          "internalType": "uint256",
          "name": "_pid",
          "type": "uint256"
        },
        {
          "internalType": "bool",
          "name": "newValue",
          "type": "bool"
        }
      ],
      "name": "updateDepositsEnabled",
      "outputs": [],
      "stateMutability": "nonpayable",
      "type": "function"
    },
    {
      "inputs": [
        {
          "internalType": "uint256",
          "name": "_pid",
          "type": "uint256"
        }
      ],
      "name": "updatePool",
      "outputs": [],
      "stateMutability": "nonpayable",
      "type": "function"
    },
    {
      "inputs": [],
      "name": "usdOracle",
      "outputs": [
        {
          "internalType": "address",
          "name": "",
          "type": "address"
        }
      ],
      "stateMutability": "view",
      "type": "function"
    },
    {
      "inputs": [],
      "name": "userDepFee",
      "outputs": [
        {
          "internalType": "uint256",
          "name": "",
          "type": "uint256"
        }
      ],
      "stateMutability": "view",
      "type": "function"
    },
    {
      "inputs": [
        {
          "internalType": "uint256",
          "name": "",
          "type": "uint256"
        }
      ],
      "name": "userFeeStage",
      "outputs": [
        {
          "internalType": "uint256",
          "name": "",
          "type": "uint256"
        }
      ],
      "stateMutability": "view",
      "type": "function"
    },
    {
      "inputs": [
        {
          "internalType": "uint256",
          "name": "",
          "type": "uint256"
        },
        {
          "internalType": "address",
          "name": "",
          "type": "address"
        }
      ],
      "name": "userInfo",
      "outputs": [
        {
          "internalType": "uint256",
          "name": "amount",
          "type": "uint256"
        },
        {
          "internalType": "uint256",
          "name": "rewardDebt",
          "type": "uint256"
        },
        {
          "internalType": "uint256",
          "name": "rewardDebtAtBlock",
          "type": "uint256"
        },
        {
          "internalType": "uint256",
          "name": "lastWithdrawBlock",
          "type": "uint256"
        },
        {
          "internalType": "uint256",
          "name": "firstDepositBlock",
          "type": "uint256"
        },
        {
          "internalType": "uint256",
          "name": "blockdelta",
          "type": "uint256"
        },
        {
          "internalType": "uint256",
          "name": "lastDepositBlock",
          "type": "uint256"
        }
      ],
      "stateMutability": "view",
      "type": "function"
    },
    {
      "inputs": [
        {
          "internalType": "uint256",
          "name": "_pid",
          "type": "uint256"
        },
        {
          "internalType": "uint256",
          "name": "_amount",
          "type": "uint256"
        }
      ],
      "name": "withdraw",
      "outputs": [],
      "stateMutability": "nonpayable",
      "type": "function"
    }
  ],
  "bytecode": "0x610d406040908152611000608090815261080060a081905260c081905261040060e08190526101008181526102006101208190526101408190526101608290526101808290526101a08290526101c08290526101e08290528190526102208190526102408190526102608490526102808490526102a08490526102c08490526102e08490526103008490526103208490526103408490526103608490526103808590526103a08590526103c08590526103e0859052908490526104208490526104408490526104608490526104808490526104a08490526104c084905260106104e0819052600861050081905261052081905261054081905261056081905260206105808190526105a08190526105c08790526105e08790526106008790526106208690526106408690526106608690526106808690526106a08690526106c08690526106e08690526107008690526107208690526107408690526107608490526107808490526107a0939093526107c08590526107e0859052928490526108208490526108408490526108608490526108808490526108a08490526108c08490526108e08590526109008590526109208590526109408590526109608590526109808590526109a08590526109c08590526109e0859052610a00859052610a2094909452610a40819052610a60819052610a80819052610aa0819052610ac0819052610ae0819052610b00819052610b20819052610b40819052610b60819052610b80819052610ba0819052610bc052610be0839052610c00839052610c20839052610c4092909252610c60829052610c80829052610ca0919091526004610cc0526002610ce0526001610d00526000610d20526200028490600a906066620003c4565b506000601e553480156200029757600080fd5b5060405162004a4238038062004a42833981016040819052620002ba9162000536565b600080546001600160a01b031916339081178255604051909182917f8be0079c531659141344cd1fd0a4f28419497f9722a3daafe3b4186f6b6457e0908290a350600380546001600160a01b03199081166001600160a01b038e8116919091179092556005805482168d84161790556006805482168c84161790556007805482168b8416179055600880549091169189169190911790556011869055601285905583516200037090600c9060208701906200041a565b5082516200038690600d9060208601906200041a565b5081516200039c90600e9060208501906200041a565b508051620003b290600f9060208401906200041a565b50505050505050505050505062000691565b82805482825590600052602060002090810192821562000408579160200282015b8281111562000408578251829061ffff16905591602001919060010190620003e5565b506200041692915062000458565b5090565b82805482825590600052602060002090810192821562000408579160200282015b82811115620004085782518255916020019190600101906200043b565b5b8082111562000416576000815560010162000459565b80516001600160a01b03811681146200048757600080fd5b919050565b600082601f8301126200049e57600080fd5b815160206001600160401b0380831115620004bd57620004bd6200067b565b8260051b604051601f19603f83011681018181108482111715620004e557620004e56200067b565b604052848152838101925086840182880185018910156200050557600080fd5b600092505b858310156200052a5780518452928401926001929092019184016200050a565b50979650505050505050565b60008060008060008060008060008060006101608c8e0312156200055957600080fd5b620005648c6200046f565b9a506200057460208d016200046f565b99506200058460408d016200046f565b98506200059460608d016200046f565b9750620005a460808d016200046f565b60a08d015160c08e015160e08f015192995090975095506001600160401b03811115620005d057600080fd5b620005de8e828f016200048c565b6101008e015190955090506001600160401b03811115620005fe57600080fd5b6200060c8e828f016200048c565b6101208e015190945090506001600160401b038111156200062c57600080fd5b6200063a8e828f016200048c565b6101408e015190935090506001600160401b038111156200065a57600080fd5b620006688e828f016200048c565b9150509295989b509295989b9093969950565b634e487b7160e01b600052604160045260246000fd5b6143a180620006a16000396000f3fe608060405234801561001057600080fd5b506004361061048b5760003560e01c80637c39c9c911610262578063b606696211610151578063d007db29116100ce578063de98852411610092578063de98852414610b61578063e668ecf214610b74578063ec12173d14610b87578063ed9bdeda14610b9a578063f2fde38b14610ba3578063fb07543314610bb657600080fd5b8063d007db2914610aa1578063d1ae7d7014610ab4578063d49e77cd14610ac7578063d9608d8a14610ada578063dd77b9fd14610b2457600080fd5b8063c8a4271f11610115578063c8a4271f14610a0d578063c8ed768014610a20578063cb0b8ca114610a5b578063ce2529c914610a6e578063cf1c316a14610a8e57600080fd5b8063b6066962146109a2578063b9181611146109b5578063beff2a53146109e8578063c56a10ff146109fb578063c6929e5314610a0457600080fd5b80638dbdbe6d116101df578063980c2a98116101a3578063980c2a981461094d5780639886046b1461095657806398969e8214610969578063a90fa6031461097c578063ae169a501461098f57600080fd5b80638dbdbe6d1461086d578063929c69711461088057806393f1a40b146108a957806395fdf2581461093b578063975532dc1461094457600080fd5b806385ee2a7f1161022657806385ee2a7f1461082357806387423c361461082c5780638cc883ce1461083f5780638da5cb5b146108525780638dbb1e3a1461085a57600080fd5b80637c39c9c9146107ce5780637cd07e47146107e157806382386d58146107f457806382796e9814610807578063847bdaa41461081057600080fd5b8063354affb71161037e57806351eb05a6116102fb578063630b5ba1116102bf578063630b5ba11461078757806364482f791461078f578063674f220f146107a25780636b966b9f146107b3578063715018a6146107c657600080fd5b806351eb05a61461070f5780635312ea8e146107225780635c5e490b146107355780636066debd146107615780636245f0841461077457600080fd5b8063454b060811610342578063454b0608146106b057806346664064146106c35780634756bfb7146106d6578063485d7d94146106e95780634af0e3e1146106fc57600080fd5b8063354affb71461064257806336ebcde61461065557806339b3e826146106815780633d479cd51461068a5780634179b4fb1461069d57600080fd5b80631e0872d71161040c57806324b95c3e116103d057806324b95c3e146105e35780632a7b0107146105f65780632fda77351461060957806330fb8e0e1461061c57806333b8154a1461062f57600080fd5b80631e0872d71461058e5780631eaaa045146105a15780631f84593e146105b457806323cf3118146105bd578063245b211d146105d057600080fd5b80630ce4c922116104535780630ce4c922146104f557806313bb3c33146105085780631526fe271461052857806317caf6f1146105725780631d465c821461057b57600080fd5b806301b689c01461049057806303ebeb9c146104a5578063081e3eda146104b857806309ae4d2c146104cf5780630ad58d2f146104e2575b600080fd5b6104a361049e366004613fec565b610bc9565b005b6104a36104b3366004613fec565b610c04565b601a545b6040519081526020015b60405180910390f35b6104bc6104dd366004613fec565b610c3f565b6104a36104f03660046140df565b610c8e565b6104a361050336600461413b565b611863565b60035461051b906001600160a01b031681565b6040516104c69190614183565b61053b610536366004613fec565b61197e565b604080516001600160a01b0390971687526020870195909552938501929092526060840152608083015260a082015260c0016104c6565b6104bc601e5481565b6104bc610589366004613fec565b6119ce565b60075461051b906001600160a01b031681565b6104a36105af36600461407b565b611a54565b6104bc60165481565b6104a36105cb366004613e97565b611c77565b6104a36105de366004613fec565b611cc3565b6104a36105f1366004613fec565b611cfe565b6104a3610604366004613eed565b611d39565b6104bc610617366004613fec565b611d86565b6104a361062a366004613e97565b611da7565b6104a361063d366004613e97565b611dff565b6104a3610650366004613eed565b611e57565b6104bc610663366004613e97565b6001600160a01b03166000908152601d602052604090206002015490565b6104bc60135481565b6104a3610698366004613fec565b611ea0565b6104bc6106ab366004613fec565b611edb565b6104a36106be366004613fec565b611eeb565b6104a36106d1366004613eed565b6120ec565b6104a36106e43660046140bd565b612135565b6104a36106f7366004613e97565b61223b565b6104a361070a366004613eed565b61229c565b6104a361071d366004613fec565b6122e5565b6104a3610730366004613fec565b6127d3565b6104bc610743366004613e97565b6001600160a01b03166000908152601d602052604090206003015490565b6104a361076f366004614043565b61292d565b6104bc610782366004613fec565b61298c565b6104a361299c565b6104a361079d36600461410d565b6129c3565b6001546001600160a01b031661051b565b6104a36107c13660046140df565b612a6c565b6104a3612b98565b6104a36107dc366004613fec565b612c0c565b60195461051b906001600160a01b031681565b6104a3610802366004614043565b612c47565b6104bc60115481565b6104a361081e366004613eed565b612ca6565b6104bc60175481565b6104a361083a366004613e97565b612cef565b6104a361084d366004613eed565b612d47565b61051b612d90565b6104bc6108683660046140bd565b612d9f565b6104a361087b3660046140df565b612eab565b6104bc61088e366004613e97565b6001600160a01b03166000908152601d602052604090205490565b6109066108b736600461401e565b601c602052816000526040600020602052806000526040600020600091509150508060000154908060010154908060020154908060030154908060040154908060050154908060060154905087565b604080519788526020880196909652948601939093526060850191909152608084015260a083015260c082015260e0016104c6565b6104bc60145481565b6104bc60095481565b6104bc60105481565b6104a3610964366004613e97565b6131af565b6104bc61097736600461401e565b613207565b6104a361098a366004613e97565b6132f3565b6104a361099d366004613fec565b613429565b6104a36109b0366004613fec565b61343e565b6109d86109c3366004613e97565b60026020526000908152604090205460ff1681565b60405190151581526020016104c6565b6104bc6109f6366004613fec565b613479565b6104bc60125481565b6104bc60185481565b60045461051b906001600160a01b031681565b610a33610a2e36600461413b565b613489565b604080519586526020860194909452928401919091526060830152608082015260a0016104c6565b6104bc610a69366004613fec565b613689565b6104bc610a7c366004613e97565b601b6020526000908152604090205481565b6104a3610a9c366004613e97565b613699565b6104bc610aaf366004613fec565b6136e7565b60065461051b906001600160a01b031681565b60055461051b906001600160a01b031681565b610b09610ae8366004613e97565b601d6020526000908152604090208054600282015460039092015490919083565b604080519384526020840192909252908201526060016104c6565b6104bc610b32366004613eb4565b6001600160a01b039182166000908152601d602090815260408083209390941682526001909201909152205490565b6104a3610b6f366004613fec565b6136f7565b6104a3610b82366004613fec565b613732565b60085461051b906001600160a01b031681565b6104bc60155481565b6104a3610bb1366004613e97565b61376d565b6104a3610bc4366004613fec565b6137fc565b3360009081526002602052604090205460ff1680610bf6575033610beb612d90565b6001600160a01b0316145b610bff57600080fd5b601455565b3360009081526002602052604090205460ff1680610c31575033610c26612d90565b6001600160a01b0316145b610c3a57600080fd5b601755565b6000818152601c602090815260408083203384529091528120600381015415610c7c576000816003015443610c7491906142a8565b949350505050565b6000816004015443610c7491906142a8565b6000601a8481548110610ca357610ca361431c565b60009182526020808320878452601c8252604080852033865290925292206004600690920290920190810154825491935090811015610cfd5760405162461bcd60e51b8152600401610cf4906141e3565b60405180910390fd5b6001600160a01b0384166000908152601d602052604080822033835291208354871115610d615760405162461bcd60e51b81526020600482015260126024820152711dda5d1a191c985dce881b9bdd0819dbdbd960721b6044820152606401610cf4565b6001600160a01b03861615610db557336000908152600183016020526040902054610d8d9088906142a8565b3360009081526001840160205260409020556003820154610daf9088906142a8565b60038301555b8054610dc29088906142a8565b8155610dcd886122e5565b610dd688613837565b8615611859578354610de99088906142a8565b8455600384015415610e0e576003840154610e0490436142a8565b6005850155610e23565b6004840154610e1d90436142a8565b60058501555b600c600081548110610e3757610e3761431c565b906000526020600020015484600501541480610e565750836006015443145b15610f73576064600e600081548110610e7157610e7161431c565b906000526020600020015488610e879190614289565b610e919190614267565b856004016000828254610ea491906142a8565b925050819055506064600f600081548110610ec157610ec161431c565b906000526020600020015488610ed79190614289565b610ee19190614267565b856004016000828254610ef491906142a8565b92505081905550610f47336064600e600081548110610f1557610f1561431c565b90600052602060002001548a610f2b9190614289565b610f359190614267565b87546001600160a01b03169190613ac3565b600554600f8054610f6e926001600160a01b031691606491600090610f1557610f1561431c565b6117f5565b600c600181548110610f8757610f8761431c565b9060005260206000200154846005015410158015610fc75750600d600081548110610fb457610fb461431c565b9060005260206000200154846005015411155b156110af576064600e600181548110610fe257610fe261431c565b906000526020600020015488610ff89190614289565b6110029190614267565b85600401600082825461101591906142a8565b925050819055506064600f6001815481106110325761103261431c565b9060005260206000200154886110489190614289565b6110529190614267565b85600401600082825461106591906142a8565b92505081905550611086336064600e600181548110610f1557610f1561431c565b600554600f8054610f6e926001600160a01b0316916064916001908110610f1557610f1561431c565b600c6002815481106110c3576110c361431c565b90600052602060002001548460050154101580156111035750600d6001815481106110f0576110f061431c565b9060005260206000200154846005015411155b156111eb576064600e60028154811061111e5761111e61431c565b9060005260206000200154886111349190614289565b61113e9190614267565b85600401600082825461115191906142a8565b925050819055506064600f60028154811061116e5761116e61431c565b9060005260206000200154886111849190614289565b61118e9190614267565b8560040160008282546111a191906142a8565b925050819055506111c2336064600e600281548110610f1557610f1561431c565b600554600f8054610f6e926001600160a01b0316916064916002908110610f1557610f1561431c565b600c6003815481106111ff576111ff61431c565b906000526020600020015484600501541015801561123f5750600d60028154811061122c5761122c61431c565b9060005260206000200154846005015411155b15611327576064600e60038154811061125a5761125a61431c565b9060005260206000200154886112709190614289565b61127a9190614267565b85600401600082825461128d91906142a8565b925050819055506064600f6003815481106112aa576112aa61431c565b9060005260206000200154886112c09190614289565b6112ca9190614267565b8560040160008282546112dd91906142a8565b925050819055506112fe336064600e600381548110610f1557610f1561431c565b600554600f8054610f6e926001600160a01b0316916064916003908110610f1557610f1561431c565b600c60048154811061133b5761133b61431c565b906000526020600020015484600501541015801561137b5750600d6003815481106113685761136861431c565b9060005260206000200154846005015411155b15611463576064600e6004815481106113965761139661431c565b9060005260206000200154886113ac9190614289565b6113b69190614267565b8560040160008282546113c991906142a8565b925050819055506064600f6004815481106113e6576113e661431c565b9060005260206000200154886113fc9190614289565b6114069190614267565b85600401600082825461141991906142a8565b9250508190555061143a336064600e600481548110610f1557610f1561431c565b600554600f8054610f6e926001600160a01b0316916064916004908110610f1557610f1561431c565b600c6005815481106114775761147761431c565b90600052602060002001548460050154101580156114b75750600d6004815481106114a4576114a461431c565b9060005260206000200154846005015411155b156115a4576103e8600e6005815481106114d3576114d361431c565b9060005260206000200154886114e99190614289565b6114f39190614267565b85600401600082825461150691906142a8565b925050819055506103e8600f6005815481106115245761152461431c565b90600052602060002001548861153a9190614289565b6115449190614267565b85600401600082825461155791906142a8565b92505081905550611579336103e8600e600581548110610f1557610f1561431c565b60058054600f8054610f6e936001600160a01b03909316926103e892918110610f1557610f1561431c565b600c6006815481106115b8576115b861431c565b90600052602060002001548460050154101580156115f85750600d6005815481106115e5576115e561431c565b9060005260206000200154846005015411155b156116e457612710600e6006815481106116145761161461431c565b90600052602060002001548861162a9190614289565b6116349190614267565b85600401600082825461164791906142a8565b92505081905550612710600f6006815481106116655761166561431c565b90600052602060002001548861167b9190614289565b6116859190614267565b85600401600082825461169891906142a8565b925050819055506116ba33612710600e600681548110610f1557610f1561431c565b600554600f8054610f6e926001600160a01b031691612710916006908110610f1557610f1561431c565b600c6007815481106116f8576116f861431c565b9060005260206000200154846005015411156117f557612710600e6007815481106117255761172561431c565b90600052602060002001548861173b9190614289565b6117459190614267565b85600401600082825461175891906142a8565b92505081905550612710600f6007815481106117765761177661431c565b90600052602060002001548861178c9190614289565b6117969190614267565b8560040160008282546117a991906142a8565b925050819055506117cb33612710600e600781548110610f1557610f1561431c565b600554600f80546117f5926001600160a01b031691612710916007908110610f1557610f1561431c565b6003850154845464e8d4a510009161180c91614289565b6118169190614267565b6001850155604051878152889033907ff279e6a1f5e320cca91135676d9cb6e44ca8a08c0b88342bcdb1144f6511b5689060200160405180910390a34360038501555b5050505050505050565b6000546001600160a01b0316331461188d5760405162461bcd60e51b8152600401610cf49061421a565b6009839055601382905560005b600a546118a9906001906142a8565b811015611918576000836118be83600161424f565b6118c89085614289565b6118d2919061424f565b600b80546001810182556000919091527f0175b7a638427703f0dbe7bb9bbf987a2551717b34e79f33b5b1008d1fa01db901555080611910816142eb565b91505061189a565b50600a54829061192a906001906142a8565b6119349083614289565b61193e919061424f565b6010555050600b80546001810182556000919091526000197f0175b7a638427703f0dbe7bb9bbf987a2551717b34e79f33b5b1008d1fa01db99091015550565b601a818154811061198e57600080fd5b60009182526020909120600690910201805460018201546002830154600384015460048501546005909501546001600160a01b0390941695509193909286565b6000806119e56119df6001436142a8565b43612d9f565b905082611a00576009546119f99082614289565b9392505050565b601e54601a611a106001866142a8565b81548110611a2057611a2061431c565b90600052602060002090600602016001015460095483611a409190614289565b611a4a9190614289565b6119f99190614267565b6000546001600160a01b03163314611a7e5760405162461bcd60e51b8152600401610cf49061421a565b6001600160a01b0382166000908152601b602052604090205415611adc5760405162461bcd60e51b81526020600482015260156024820152741b1c081a5cc8185b1c9958591e481a5b881c1bdbdb605a1b6044820152606401610cf4565b8015611aea57611aea61299c565b60006013544311611afd57601354611aff565b435b905083601e54611b0f919061424f565b601e55601a54611b2090600161424f565b6001600160a01b039384166000818152601b6020908152604080832094909455835160c0810185529283528201968752918101928352606081018281526080820183815260a08301848152601a8054600181018255955292517f057c384a7d1c54f3a1b2e5e67b2617b8224fdfd1ea7234eea573a6ff665ff63e600690950294850180546001600160a01b031916919098161790965595517f057c384a7d1c54f3a1b2e5e67b2617b8224fdfd1ea7234eea573a6ff665ff63f83015591517f057c384a7d1c54f3a1b2e5e67b2617b8224fdfd1ea7234eea573a6ff665ff64082015593517f057c384a7d1c54f3a1b2e5e67b2617b8224fdfd1ea7234eea573a6ff665ff64185015591517f057c384a7d1c54f3a1b2e5e67b2617b8224fdfd1ea7234eea573a6ff665ff64284015550517f057c384a7d1c54f3a1b2e5e67b2617b8224fdfd1ea7234eea573a6ff665ff64390910155565b6000546001600160a01b03163314611ca15760405162461bcd60e51b8152600401610cf49061421a565b601980546001600160a01b0319166001600160a01b0392909216919091179055565b3360009081526002602052604090205460ff1680611cf0575033611ce5612d90565b6001600160a01b0316145b611cf957600080fd5b601055565b3360009081526002602052604090205460ff1680611d2b575033611d20612d90565b6001600160a01b0316145b611d3457600080fd5b601355565b3360009081526002602052604090205460ff1680611d66575033611d5b612d90565b6001600160a01b0316145b611d6f57600080fd5b8051611d8290600e906020840190613e37565b5050565b600a8181548110611d9657600080fd5b600091825260209091200154905081565b3360009081526002602052604090205460ff1680611dd4575033611dc9612d90565b6001600160a01b0316145b611ddd57600080fd5b600880546001600160a01b0319166001600160a01b0392909216919091179055565b3360009081526002602052604090205460ff1680611e2c575033611e21612d90565b6001600160a01b0316145b611e3557600080fd5b600680546001600160a01b0319166001600160a01b0392909216919091179055565b3360009081526002602052604090205460ff1680611e84575033611e79612d90565b6001600160a01b0316145b611e8d57600080fd5b8051611d8290600b906020840190613e37565b3360009081526002602052604090205460ff1680611ecd575033611ec2612d90565b6001600160a01b0316145b611ed657600080fd5b600955565b600b8181548110611d9657600080fd5b6019546001600160a01b0316611f2f5760405162461bcd60e51b815260206004820152600960248201526830206164647265737360b81b6044820152606401610cf4565b6000601a8281548110611f4457611f4461431c565b60009182526020909120600690910201805460048201546019549293506001600160a01b03918216929091611f7c9184911683613b19565b80836004016000828254611f9091906142a8565b909155505060195460405163ce5494bb60e01b81526000916001600160a01b03169063ce5494bb90611fc6908690600401614183565b602060405180830381600087803b158015611fe057600080fd5b505af1158015611ff4573d6000803e3d6000fd5b505050506040513d601f19601f820116820180604052508101906120189190613fcf565b6040516370a0823160e01b81529091506001600160a01b038216906370a0823190612047903090600401614183565b60206040518083038186803b15801561205f57600080fd5b505afa158015612073573d6000803e3d6000fd5b505050506040513d601f19601f820116820180604052508101906120979190614005565b82146120cb5760405162461bcd60e51b815260206004820152600360248201526218985960ea1b6044820152606401610cf4565b83546001600160a01b0319166001600160a01b039190911617909255505050565b3360009081526002602052604090205460ff168061211957503361210e612d90565b6001600160a01b0316145b61212257600080fd5b8051611d8290600a906020840190613e37565b6000601a838154811061214a5761214a61431c565b90600052602060002090600602019050600081600501549050808311156121b35760405162461bcd60e51b815260206004820152601b60248201527f72657475726e20416d6f756e74203e206c656e6420616d6f756e7400000000006044820152606401610cf4565b81546121ca906001600160a01b0316333086613c2c565b828260040160008282546121de919061424f565b92505081905550828260050160008282546121f991906142a8565b9091555050604051838152849033907f8b360b45c40ff2b07f82c48e15372be7b837d6d03be7196df552834c7de02c679060200160405180910390a350505050565b6000546001600160a01b031633146122655760405162461bcd60e51b8152600401610cf49061421a565b6001600160a01b03811633141561227b57600080fd5b6001600160a01b03166000908152600260205260409020805460ff19169055565b3360009081526002602052604090205460ff16806122c95750336122be612d90565b6001600160a01b0316145b6122d257600080fd5b8051611d8290600d906020840190613e37565b6000601a82815481106122fa576122fa61431c565b9060005260206000209060060201905080600201544311612319575050565b60048101548061232e57504360029091015550565b60008060008060006123498760020154438960010154613489565b6003546040516340c10f1960e01b8152959a50939850919650945092506001600160a01b0316906340c10f19906123869030908890600401614197565b600060405180830381600087803b1580156123a057600080fd5b505af11580156123b4573d6000803e3d6000fd5b50505050858464e8d4a510006123ca9190614289565b6123d49190614267565b87600301546123e3919061424f565b600388015543600288015584156124e5576003546005546040516340c10f1960e01b81526001600160a01b03928316926340c10f199261242a929116908990600401614197565b600060405180830381600087803b15801561244457600080fd5b505af1158015612458573d6000803e3d6000fd5b5050505060105443116124e5576003546005546001600160a01b039182169163282d3fdf9116606461248b89604b614289565b6124959190614267565b6040518363ffffffff1660e01b81526004016124b2929190614197565b600060405180830381600087803b1580156124cc57600080fd5b505af11580156124e0573d6000803e3d6000fd5b505050505b82156125dc576003546006546040516340c10f1960e01b81526001600160a01b03928316926340c10f1992612521929116908790600401614197565b600060405180830381600087803b15801561253b57600080fd5b505af115801561254f573d6000803e3d6000fd5b5050505060105443116125dc576003546006546001600160a01b039182169163282d3fdf9116606461258287602d614289565b61258c9190614267565b6040518363ffffffff1660e01b81526004016125a9929190614197565b600060405180830381600087803b1580156125c357600080fd5b505af11580156125d7573d6000803e3d6000fd5b505050505b81156126d3576003546007546040516340c10f1960e01b81526001600160a01b03928316926340c10f1992612618929116908690600401614197565b600060405180830381600087803b15801561263257600080fd5b505af1158015612646573d6000803e3d6000fd5b5050505060105443116126d3576003546007546001600160a01b039182169163282d3fdf91166064612679866055614289565b6126839190614267565b6040518363ffffffff1660e01b81526004016126a0929190614197565b600060405180830381600087803b1580156126ba57600080fd5b505af11580156126ce573d6000803e3d6000fd5b505050505b8015611859576003546008546040516340c10f1960e01b81526001600160a01b03928316926340c10f199261270f929116908590600401614197565b600060405180830381600087803b15801561272957600080fd5b505af115801561273d573d6000803e3d6000fd5b505050506010544311611859576003546008546001600160a01b039182169163282d3fdf9116606461277085605f614289565b61277a9190614267565b6040518363ffffffff1660e01b8152600401612797929190614197565b600060405180830381600087803b1580156127b157600080fd5b505af11580156127c5573d6000803e3d6000fd5b505050505050505050505050565b6000601a82815481106127e8576127e861431c565b60009182526020808320858452601c82526040808520338652909252922060046006909202909201908101548254919350908110156128395760405162461bcd60e51b8152600401610cf4906141e3565b815460009060649061284c90604b614289565b6128569190614267565b9050600060648460000154601961286d9190614289565b6128779190614267565b600080865560018601819055600487018054929350849290919061289c9084906142a8565b92505081905550808560040160008282546128b791906142a8565b909155505084546128d2906001600160a01b03163384613ac3565b60055485546128ee916001600160a01b03918216911683613ac3565b604051828152869033907fbb757047c2b5f3974fe26b7c10f732e7bce710b0952a71082702781e62ae05959060200160405180910390a3505050505050565b3360009081526002602052604090205460ff168061295a57503361294f612d90565b6001600160a01b0316145b61296357600080fd5b6000928352601c602090815260408085206001600160a01b039094168552929052912060030155565b600c8181548110611d9657600080fd5b601a5460005b81811015611d82576129b3816122e5565b6129bc816142eb565b90506129a2565b6000546001600160a01b031633146129ed5760405162461bcd60e51b8152600401610cf49061421a565b80156129fb576129fb61299c565b81601a8481548110612a0f57612a0f61431c565b906000526020600020906006020160010154601e54612a2e91906142a8565b612a38919061424f565b601e8190555081601a8481548110612a5257612a5261431c565b906000526020600020906006020160010181905550505050565b6000546001600160a01b03163314612a965760405162461bcd60e51b8152600401610cf49061421a565b6000601a8481548110612aab57612aab61431c565b9060005260206000209060060201905060008160040154905083811015612b105760405162461bcd60e51b81526020600482015260196024820152786c656e6420616d6f756e74203e206661726d42616c616e636560381b6044820152606401610cf4565b83826005016000828254612b24919061424f565b9250508190555083826004016000828254612b3f91906142a8565b90915550508154612b5a906001600160a01b03168486613ac3565b604051848152859033907fc003f45bc224d116b6d079100d4ab57a5b9633244c47a5a92a176c5b79a85f289060200160405180910390a35050505050565b6000546001600160a01b03163314612bc25760405162461bcd60e51b8152600401610cf49061421a565b600080546040516001600160a01b03909116907f8be0079c531659141344cd1fd0a4f28419497f9722a3daafe3b4186f6b6457e0908390a3600080546001600160a01b0319169055565b3360009081526002602052604090205460ff1680612c39575033612c2e612d90565b6001600160a01b0316145b612c4257600080fd5b601155565b3360009081526002602052604090205460ff1680612c74575033612c69612d90565b6001600160a01b0316145b612c7d57600080fd5b6000928352601c602090815260408085206001600160a01b039094168552929052912060040155565b3360009081526002602052604090205460ff1680612cd3575033612cc8612d90565b6001600160a01b0316145b612cdc57600080fd5b8051611d8290600c906020840190613e37565b3360009081526002602052604090205460ff1680612d1c575033612d11612d90565b6001600160a01b0316145b612d2557600080fd5b600580546001600160a01b0319166001600160a01b0392909216919091179055565b3360009081526002602052604090205460ff1680612d74575033612d69612d90565b6001600160a01b0316145b612d7d57600080fd5b8051611d8290600f906020840190613e37565b6000546001600160a01b031690565b6013546000908190841015612db8576000915050612ea5565b60005b600b54811015612ea1576000600b8281548110612dda57612dda61431c565b90600052602060002001549050808511612e3b576000600a8381548110612e0357612e0361431c565b90600052602060002001548787612e1a91906142a8565b612e249190614289565b9050612e30818561424f565b945050505050612ea5565b80861015612e8e576000600a8381548110612e5857612e5861431c565b90600052602060002001548783612e6f91906142a8565b612e799190614289565b90508196508084612e8a919061424f565b9350505b5080612e99816142eb565b915050612dbb565b5090505b92915050565b60008211612efb5760405162461bcd60e51b815260206004820152601a60248201527f616d6f756e74206d7573742067726561746572207468616e20300000000000006044820152606401610cf4565b6000601a8481548110612f1057612f1061431c565b60009182526020808320878452601c82526040808520338087529084528186206005546001600160a01b039081168852838820908a168852601d865283882092885283882060018401909652929096205460069590950290920195509290919015612fbe57336000908152600183016020526040902054612f9290889061424f565b3360009081526001840160205260409020556003820154612fb490889061424f565b600383015561301b565b336000908152600183016020526040902054612fdb90889061424f565b336000908152600180850160205260409091209190915560028301546130009161424f565b6002830155600382015461301590889061424f565b60038301555b6127106011548861302c9190614289565b6130369190614267565b61304090886142a8565b815461304c919061424f565b8155613057886122e5565b61306088613837565b8454613077906001600160a01b031633308a613c2c565b8685600401600082825461308b919061424f565b9091555050835461309d574360028501555b612710601154886130ae9190614289565b6130b89190614267565b6130c290886142a8565b84546130ce919061424f565b808555600386015464e8d4a51000916130e79190614289565b6130f19190614267565b6001850155601254612710906131079089614289565b6131119190614267565b61311b90886142a8565b8354613127919061424f565b808455600386015464e8d4a51000916131409190614289565b61314a9190614267565b6001840155604051878152889033907f90890809c654f11d6e72a28fa60149770a0d11ec6c92319d6ceb2bb0a4ea1a159060200160405180910390a36004840154156131955761319c565b4360048501555b4384600601819055505050505050505050565b3360009081526002602052604090205460ff16806131dc5750336131d1612d90565b6001600160a01b0316145b6131e557600080fd5b600780546001600160a01b0319166001600160a01b0392909216919091179055565b600080601a848154811061321d5761321d61431c565b60009182526020808320878452601c825260408085206001600160a01b0389168652909252922060036006909202909201908101546004820154600283015492945090914311801561326f5750600081115b156132bb5760006132898560020154438760010154613489565b509193508492506132a3915083905064e8d4a51000614289565b6132ad9190614267565b6132b7908461424f565b9250505b6001830154835464e8d4a51000906132d4908590614289565b6132de9190614267565b6132e891906142a8565b979650505050505050565b6001546001600160a01b0316331461335f5760405162461bcd60e51b815260206004820152602960248201527f4f776e61626c653a2063616c6c6572206973206e6f742074686520707265766960448201526837bab99037bbb732b960b91b6064820152608401610cf4565b6001546001600160a01b038281169116146133ce5760405162461bcd60e51b815260206004820152602960248201527f4f776e61626c653a206e6577206f776e6572206d75737420626520707265766960448201526837bab99037bbb732b960b91b6064820152608401610cf4565b600080546040516001600160a01b03808516939216917f8be0079c531659141344cd1fd0a4f28419497f9722a3daafe3b4186f6b6457e091a3600080546001600160a01b0319166001600160a01b0392909216919091179055565b613432816122e5565b61343b81613837565b50565b3360009081526002602052604090205460ff168061346b575033613460612d90565b6001600160a01b0316145b61347457600080fd5b601555565b600f8181548110611d9657600080fd5b60008060008060008061349c8989612d9f565b90506000601e5488600954846134b29190614289565b6134bc9190614289565b6134c69190614267565b90506000600360009054906101000a90046001600160a01b03166001600160a01b03166318160ddd6040518163ffffffff1660e01b815260040160206040518083038186803b15801561351857600080fd5b505afa15801561352c573d6000803e3d6000fd5b505050506040513d601f19601f820116820180604052508101906135509190614005565b600360009054906101000a90046001600160a01b03166001600160a01b031663355274ea6040518163ffffffff1660e01b815260040160206040518083038186803b15801561359e57600080fd5b505afa1580156135b2573d6000803e3d6000fd5b505050506040513d601f19601f820116820180604052508101906135d69190614005565b6135e091906142a8565b905081811015613602576000975080965060009550600094506000935061367b565b620186a0601554836136149190614289565b61361e9190614267565b97508196506064601654836136339190614289565b61363d9190614267565b9550612710601754836136509190614289565b61365a9190614267565b9450620186a06018548361366e9190614289565b6136789190614267565b93505b505050939792965093509350565b600d8181548110611d9657600080fd5b6000546001600160a01b031633146136c35760405162461bcd60e51b8152600401610cf49061421a565b6001600160a01b03166000908152600260205260409020805460ff19166001179055565b600e8181548110611d9657600080fd5b3360009081526002602052604090205460ff1680613724575033613719612d90565b6001600160a01b0316145b61372d57600080fd5b601855565b3360009081526002602052604090205460ff168061375f575033613754612d90565b6001600160a01b0316145b61376857600080fd5b601655565b6000546001600160a01b031633146137975760405162461bcd60e51b8152600401610cf49061421a565b6001600160a01b0381166133ce5760405162461bcd60e51b815260206004820152602660248201527f4f776e61626c653a206e6577206f776e657220697320746865207a65726f206160448201526564647265737360d01b6064820152608401610cf4565b3360009081526002602052604090205460ff168061382957503361381e612d90565b6001600160a01b0316145b61383257600080fd5b601255565b6000601a828154811061384c5761384c61431c565b60009182526020808320858452601c82526040808520338652909252922080546006909202909201925015613abe576000816001015464e8d4a510008460030154846000015461389c9190614289565b6138a69190614267565b6138b091906142a8565b6003546040516370a0823160e01b81529192506000916001600160a01b03909116906370a08231906138e6903090600401614183565b60206040518083038186803b1580156138fe57600080fd5b505afa158015613912573d6000803e3d6000fd5b505050506040513d601f19601f820116820180604052508101906139369190614005565b905080821115613944578091505b8115613a955760035460405163a9059cbb60e01b81526001600160a01b039091169063a9059cbb9061397c9033908690600401614197565b602060405180830381600087803b15801561399657600080fd5b505af11580156139aa573d6000803e3d6000fd5b505050506040513d601f19601f820116820180604052508101906139ce9190613fb2565b5060006064601454846139e19190614289565b6139eb9190614267565b60035460405163282d3fdf60e01b81529192506001600160a01b03169063282d3fdf90613a1e9033908590600401614197565b600060405180830381600087803b158015613a3857600080fd5b505af1158015613a4c573d6000803e3d6000fd5b505043600287015550506040805184815260208101839052879133917f93fdfb615a61d5d994a2a785eb4628417adaea7d6acdc5b224303687f2269a16910160405180910390a3505b6003840154835464e8d4a5100091613aac91614289565b613ab69190614267565b600184015550505b505050565b613abe8363a9059cbb60e01b8484604051602401613ae2929190614197565b60408051601f198184030181529190526020810180516001600160e01b03166001600160e01b031990931692909217909152613c6a565b801580613ba25750604051636eb1769f60e11b81523060048201526001600160a01b03838116602483015284169063dd62ed3e9060440160206040518083038186803b158015613b6857600080fd5b505afa158015613b7c573d6000803e3d6000fd5b505050506040513d601f19601f82011682018060405250810190613ba09190614005565b155b613c0d5760405162461bcd60e51b815260206004820152603660248201527f5361666545524332303a20617070726f76652066726f6d206e6f6e2d7a65726f60448201527520746f206e6f6e2d7a65726f20616c6c6f77616e636560501b6064820152608401610cf4565b613abe8363095ea7b360e01b8484604051602401613ae2929190614197565b6040516001600160a01b0380851660248301528316604482015260648101829052613c649085906323b872dd60e01b90608401613ae2565b50505050565b6000613cbf826040518060400160405280602081526020017f5361666545524332303a206c6f772d6c6576656c2063616c6c206661696c6564815250856001600160a01b0316613d3c9092919063ffffffff16565b805190915015613abe5780806020019051810190613cdd9190613fb2565b613abe5760405162461bcd60e51b815260206004820152602a60248201527f5361666545524332303a204552433230206f7065726174696f6e20646964206e6044820152691bdd081cdd58d8d9595960b21b6064820152608401610cf4565b6060610c74848460008585843b613d955760405162461bcd60e51b815260206004820152601d60248201527f416464726573733a2063616c6c20746f206e6f6e2d636f6e74726163740000006044820152606401610cf4565b600080866001600160a01b03168587604051613db19190614167565b60006040518083038185875af1925050503d8060008114613dee576040519150601f19603f3d011682016040523d82523d6000602084013e613df3565b606091505b50915091506132e882828660608315613e0d5750816119f9565b825115613e1d5782518084602001fd5b8160405162461bcd60e51b8152600401610cf491906141b0565b828054828255906000526020600020908101928215613e72579160200282015b82811115613e72578251825591602001919060010190613e57565b50613e7e929150613e82565b5090565b5b80821115613e7e5760008155600101613e83565b600060208284031215613ea957600080fd5b81356119f981614348565b60008060408385031215613ec757600080fd5b8235613ed281614348565b91506020830135613ee281614348565b809150509250929050565b60006020808385031215613f0057600080fd5b823567ffffffffffffffff80821115613f1857600080fd5b818501915085601f830112613f2c57600080fd5b813581811115613f3e57613f3e614332565b8060051b604051601f19603f83011681018181108582111715613f6357613f63614332565b604052828152858101935084860182860187018a1015613f8257600080fd5b600095505b83861015613fa5578035855260019590950194938601938601613f87565b5098975050505050505050565b600060208284031215613fc457600080fd5b81516119f98161435d565b600060208284031215613fe157600080fd5b81516119f981614348565b600060208284031215613ffe57600080fd5b5035919050565b60006020828403121561401757600080fd5b5051919050565b6000806040838503121561403157600080fd5b823591506020830135613ee281614348565b60008060006060848603121561405857600080fd5b83359250602084013561406a81614348565b929592945050506040919091013590565b60008060006060848603121561409057600080fd5b8335925060208401356140a281614348565b915060408401356140b28161435d565b809150509250925092565b600080604083850312156140d057600080fd5b50508035926020909101359150565b6000806000606084860312156140f457600080fd5b833592506020840135915060408401356140b281614348565b60008060006060848603121561412257600080fd5b833592506020840135915060408401356140b28161435d565b60008060006060848603121561415057600080fd5b505081359360208301359350604090920135919050565b600082516141798184602087016142bf565b9190910192915050565b6001600160a01b0391909116815260200190565b6001600160a01b03929092168252602082015260400190565b60208152600082518060208401526141cf8160408501602087016142bf565b601f01601f19169190910160400192915050565b6020808252601d908201527f776974686472617720616d6f756e74203e206661726d42616c616e6365000000604082015260600190565b6020808252818101527f4f776e61626c653a2063616c6c6572206973206e6f7420746865206f776e6572604082015260600190565b6000821982111561426257614262614306565b500190565b60008261428457634e487b7160e01b600052601260045260246000fd5b500490565b60008160001904831182151516156142a3576142a3614306565b500290565b6000828210156142ba576142ba614306565b500390565b60005b838110156142da5781810151838201526020016142c2565b83811115613c645750506000910152565b60006000198214156142ff576142ff614306565b5060010190565b634e487b7160e01b600052601160045260246000fd5b634e487b7160e01b600052603260045260246000fd5b634e487b7160e01b600052604160045260246000fd5b6001600160a01b038116811461343b57600080fd5b801515811461343b57600080fdfea264697066735822122037983a48e4dab1bc3a3d49c3cf6d4c96d3419d455fa15a0e30f71c07414eef4664736f6c63430008070033",
  "immutableReferences": {},
  "source": "// SPDX-License-Identifier: UNLICENSED\r\n\r\npragma solidity ^0.8.0;\r\n\r\nimport \"./Ownable.sol\";\r\nimport \"./IERC20.sol\";\r\nimport \"./SafeERC20.sol\";\r\n\r\ninterface IMigratorToBavaSwap {\r\n    // Perform LP token migration from legacy UniswapV2 to BavaSwap.\r\n    // Take the current LP token address and return the new LP token address.\r\n    // Migrator should have full access to the caller's LP token.\r\n    // Return the new LP token address.\r\n    //\r\n    // XXX Migrator must have allowance access to UniswapV2 LP tokens.\r\n    // BavaSwap must mint EXACTLY the same amount of BavaSwap LP tokens or\r\n    // else something bad will happen. Traditional UniswapV2 does not\r\n    // do that so be careful!\r\n    function migrate(IERC20 token) external returns (IERC20);\r\n}\r\n\r\ninterface IBavaToken {\r\n\r\n    function transfer(address to, uint tokens) external returns (bool success);\r\n\r\n    function mint(address to, uint tokens) external;\r\n\r\n    function balanceOf(address tokenOwner) external view returns (uint balance);\r\n\r\n    function cap() external view returns (uint capSuppply);\r\n\r\n    function totalSupply() external view returns (uint _totalSupply);\r\n\r\n    function lock(address _holder, uint256 _amount) external;\r\n\r\n}\r\n\r\n// BavaMasterFarmer is the master of Bava. He can make Bava and he is a fair guy.\r\n//\r\n// Note that it's ownable and the owner wields tremendous power. The ownership\r\n// will be transferred to a governance smart contract once Bava is sufficiently\r\n// distributed and the community can show to govern itself.\r\n//\r\ncontract BavaMasterFarmerV0 is Ownable, Authorizable {\r\n    using SafeERC20 for IERC20;\r\n\r\n    // Info of each user.\r\n    struct UserInfo {\r\n        uint256 amount;     // How many LP tokens the user has provided.\r\n        uint256 rewardDebt; // Reward debt. See explanation below.\r\n        uint256 rewardDebtAtBlock; // the last block user stake\r\n\t\tuint256 lastWithdrawBlock; // the last block a user withdrew at.\r\n\t\tuint256 firstDepositBlock; // the first block a user deposited at.\r\n\t\tuint256 blockdelta; //time passed since withdrawals\r\n\t\tuint256 lastDepositBlock; // the last block a user deposited at.\r\n        //\r\n        // We do some fancy math here. Basically, any point in time, the amount of Bavas\r\n        // entitled to a user but is pending to be distributed is:\r\n        //\r\n        //   pending reward = (user.amount * pool.accBavaPerShare) - user.rewardDebt\r\n        //\r\n        // Whenever a user deposits or withdraws LP tokens to a pool. Here's what happens:\r\n        //   1. The pool's `accBavaPerShare` (and `lastRewardBlock`) gets updated.\r\n        //   2. User receives the pending reward sent to his/her address.\r\n        //   3. User's `amount` gets updated.\r\n        //   4. User's `rewardDebt` gets updated.\r\n    }\r\n    \r\n    struct UserGlobalInfo {\r\n        uint256 globalAmount;\r\n        mapping(address => uint256) referrals;\r\n        uint256 totalReferals;\r\n        uint256 globalRefAmount;\r\n    }\r\n\r\n    // Info of each pool.\r\n    struct PoolInfo {\r\n        IERC20 lpToken;             // Address of LP token contract.\r\n        uint256 allocPoint;         // How many allocation points assigned to this pool. Bavas to distribute per block.\r\n        uint256 lastRewardBlock;    // Last block number that Bavas distribution occurs.\r\n        uint256 accBavaPerShare;    // Accumulated Bavas per share, times 1e12. See below.\r\n        uint256 depositAmount;      // Total deposit amount\r\n        uint256 lendAmount;         // Restaking borrow amount\r\n    }\r\n\r\n    // The Bava TOKEN!\r\n    IBavaToken public Bava;\r\n    //An ETH/USDC Oracle (Chainlink)\r\n    address public usdOracle;\r\n    // Developer/Employee address.\r\n    address public devaddr;\r\n\t// Future Treasury address\r\n\taddress public futureTreasuryaddr;\r\n\t// Advisor Address\r\n\taddress public advisoraddr;\r\n\t// Founder Reward\r\n\taddress public founderaddr;\r\n    // Bava tokens created per block.\r\n    uint256 public REWARD_PER_BLOCK;\r\n    // Bonus muliplier for early Bava makers.\r\n    uint256[] public REWARD_MULTIPLIER =[4096, 2048, 2048, 1024, 1024, 512, 512, 256, 256, 256, 256, 256, 256, 256, 256, 128, 128, 128, 128, 128, 128, 128, 128, 128, 64, 64, 64, 64, 64, 64, 64, 64, 64, 64, 64, 16, 8, 8, 8, 8, 32, 32, 64, 64, 64, 128, 128, 128, 128, 128, 128, 128, 128, 128, 128, 256, 256, 256, 128, 128, 128, 128, 128, 128, 128, 128, 128, 64, 64, 64, 64, 64, 64, 64, 64, 64, 64, 64, 32, 32, 32, 32, 32, 32, 32, 32, 32, 32, 32, 32, 32, 16, 16, 16, 16, 8, 8, 8, 4, 2, 1, 0];\r\n    uint256[] public HALVING_AT_BLOCK; // init in constructor function\r\n    uint256[] public blockDeltaStartStage;\r\n    uint256[] public blockDeltaEndStage;\r\n    uint256[] public userFeeStage;\r\n    uint256[] public devFeeStage;\r\n    uint256 public FINISH_BONUS_AT_BLOCK;\r\n    uint256 public userDepFee;\r\n    uint256 public devDepFee;\r\n\r\n    // The block number when Bava mining starts.\r\n    uint256 public START_BLOCK;\r\n\r\n    uint256 public PERCENT_LOCK_BONUS_REWARD; // lock xx% of bounus reward in 3 year\r\n    uint256 public PERCENT_FOR_DEV; // Dev bounties + Employees\r\n\tuint256 public PERCENT_FOR_FT; // Future Treasury fund\r\n\tuint256 public PERCENT_FOR_ADR; // Advisor fund\r\n\tuint256 public PERCENT_FOR_FOUNDERS; // founders fund\r\n\r\n    // The migrator contract. It has a lot of power. Can only be set through governance (owner).\r\n    IMigratorToBavaSwap public migrator;\r\n\r\n    // Info of each pool.\r\n    PoolInfo[] public poolInfo;\r\n    mapping(address => uint256) public poolId1; // poolId1 count from 1, subtraction 1 before using with poolInfo\r\n    // Info of each user that stakes LP tokens. pid => user address => info\r\n    mapping (uint256 => mapping (address => UserInfo)) public userInfo;\r\n    mapping (address => UserGlobalInfo) public userGlobalInfo;\r\n    // Total allocation poitns. Must be the sum of all allocation points in all pools.\r\n    uint256 public totalAllocPoint = 0;\r\n\r\n    event Deposit(address indexed user, uint256 indexed pid, uint256 amount);\r\n    event Withdraw(address indexed user, uint256 indexed pid, uint256 amount);\r\n    event EmergencyWithdraw(address indexed user, uint256 indexed pid, uint256 amount);\r\n    event SendBavaReward(address indexed user, uint256 indexed pid, uint256 amount, uint256 lockAmount);\r\n    event Reinvest(address indexed user, uint256 indexed pid, uint256 lendAmount);\r\n    event ReturnReinvest(address indexed user, uint256 indexed pid, uint256 lendAmount);\r\n\r\n    constructor(\r\n        IBavaToken _IBava,\r\n        address _devaddr,\r\n\t\taddress _futureTreasuryaddr,\r\n\t\taddress _advisoraddr,\r\n\t\taddress _founderaddr,\r\n        uint256 _userDepFee,\r\n        uint256 _devDepFee,\r\n        uint256[] memory _blockDeltaStartStage,\r\n        uint256[] memory _blockDeltaEndStage,\r\n        uint256[] memory _userFeeStage,\r\n        uint256[] memory _devFeeStage\r\n    ) {\r\n        Bava = _IBava;\r\n        devaddr = _devaddr;\r\n\t\tfutureTreasuryaddr = _futureTreasuryaddr;\r\n\t\tadvisoraddr = _advisoraddr;\r\n\t\tfounderaddr = _founderaddr;\r\n\t    userDepFee = _userDepFee;\r\n\t    devDepFee = _devDepFee;\r\n\t    blockDeltaStartStage = _blockDeltaStartStage;\r\n\t    blockDeltaEndStage = _blockDeltaEndStage;\r\n\t    userFeeStage = _userFeeStage;\r\n\t    devFeeStage = _devFeeStage;\r\n        \r\n    }\r\n\r\n    function initPool(uint256 _rewardPerBlock, uint256 _startBlock,uint256 _halvingAfterBlock) public onlyOwner {\r\n        REWARD_PER_BLOCK = _rewardPerBlock;\r\n        START_BLOCK = _startBlock;\r\n        for (uint256 i = 0; i < REWARD_MULTIPLIER.length - 1; i++) {\r\n            uint256 halvingAtBlock = _halvingAfterBlock*(i + 1)+(_startBlock);\r\n            HALVING_AT_BLOCK.push(halvingAtBlock);\r\n        }\r\n        FINISH_BONUS_AT_BLOCK = _halvingAfterBlock*(REWARD_MULTIPLIER.length - 1)+(_startBlock);\r\n        HALVING_AT_BLOCK.push(type(uint256).max);\r\n    }\r\n\r\n    function poolLength() external view returns (uint256) {\r\n        return poolInfo.length;\r\n    }\r\n    \r\n\r\n    // Add a new lp to the pool. Can only be called by the owner.\r\n    function add(uint256 _allocPoint, IERC20 _lpToken, bool _withUpdate) public onlyOwner {\r\n        require(poolId1[address(_lpToken)] == 0, \"lp is already in pool\");\r\n        if (_withUpdate) {\r\n            massUpdatePools();\r\n        }\r\n        uint256 lastRewardBlock = block.number > START_BLOCK ? block.number : START_BLOCK;\r\n        totalAllocPoint = totalAllocPoint+(_allocPoint);\r\n        poolId1[address(_lpToken)] = poolInfo.length + 1;\r\n        poolInfo.push(PoolInfo({\r\n            lpToken: _lpToken,\r\n            allocPoint: _allocPoint,\r\n            lastRewardBlock: lastRewardBlock,\r\n            accBavaPerShare: 0,\r\n            depositAmount: 0,\r\n            lendAmount: 0\r\n        }));\r\n    }\r\n\r\n    // Update the given pool's Bava allocation point. Can only be called by the owner.\r\n    function set(uint256 _pid, uint256 _allocPoint, bool _withUpdate) public onlyOwner {\r\n        if (_withUpdate) {\r\n            massUpdatePools();\r\n        }\r\n        totalAllocPoint = totalAllocPoint-(poolInfo[_pid].allocPoint)+(_allocPoint);\r\n        poolInfo[_pid].allocPoint = _allocPoint;\r\n    }\r\n\r\n    // Set the migrator contract. Can only be called by the owner.\r\n    function setMigrator(IMigratorToBavaSwap _migrator) public onlyOwner {\r\n        migrator = _migrator;\r\n    }\r\n\r\n    // Migrate lp token to another lp contract. Can be called by anyone. We trust that migrator contract is good.\r\n    function migrate(uint256 _pid) public {\r\n        require(address(migrator) != address(0), \"0 address\");\r\n        PoolInfo storage pool = poolInfo[_pid];\r\n        IERC20 lpToken = pool.lpToken;\r\n\r\n        uint256 bal = pool.depositAmount;\r\n        // uint256 bal = lpToken.balanceOf(address(this));\r\n        lpToken.safeApprove(address(migrator), bal);\r\n        pool.depositAmount -= bal;\r\n        IERC20 newLpToken = migrator.migrate(lpToken);        \r\n        require(bal == newLpToken.balanceOf(address(this)), \"bad\");\r\n        pool.lpToken = newLpToken;\r\n    }\r\n\r\n    // Update reward variables for all pools. Be careful of gas spending!\r\n    function massUpdatePools() public {\r\n        uint256 length = poolInfo.length;\r\n        for (uint256 pid = 0; pid < length; ++pid) {\r\n            updatePool(pid);\r\n        }\r\n    }\r\n\r\n    // Update reward variables of the given pool to be up-to-date.\r\n    function updatePool(uint256 _pid) public {\r\n        PoolInfo storage pool = poolInfo[_pid];\r\n        if (block.number <= pool.lastRewardBlock) {\r\n            return;\r\n        }\r\n        uint256 lpSupply = pool.depositAmount;\r\n        // uint256 lpSupply = pool.lpToken.balanceOf(address(this));\r\n        if (lpSupply == 0) {\r\n            pool.lastRewardBlock = block.number;\r\n            return;\r\n        }\r\n        uint256 BavaForDev;\r\n        uint256 BavaForFarmer;\r\n\t\tuint256 BavaForFT;\r\n\t\tuint256 BavaForAdr;\r\n\t\tuint256 BavaForFounders;\r\n        (BavaForDev, BavaForFarmer, BavaForFT, BavaForAdr, BavaForFounders) = getPoolReward(pool.lastRewardBlock, block.number, pool.allocPoint);\r\n        Bava.mint(address(this), BavaForFarmer);\r\n        pool.accBavaPerShare = pool.accBavaPerShare+(BavaForFarmer*(1e12)/(lpSupply));\r\n        pool.lastRewardBlock = block.number;\r\n        if (BavaForDev > 0) {\r\n            Bava.mint(address(devaddr), BavaForDev);\r\n            //Dev fund has xx% locked during the starting bonus period. After which locked funds drip out linearly each block over 3 years.\r\n            if (block.number <= FINISH_BONUS_AT_BLOCK) {\r\n                Bava.lock(address(devaddr), BavaForDev*(75)/(100));\r\n            }\r\n        }\r\n\t\tif (BavaForFT > 0) {\r\n            Bava.mint(futureTreasuryaddr, BavaForFT);\r\n\t\t\t//FT + Partnership fund has only xx% locked over time as most of it is needed early on for incentives and listings. The locked amount will drip out linearly each block after the bonus period.\r\n\t\t\tif (block.number <= FINISH_BONUS_AT_BLOCK) {\r\n                Bava.lock(address(futureTreasuryaddr), BavaForFT*(45)/(100));\r\n            }\r\n        }\r\n\t\tif (BavaForAdr > 0) {\r\n            Bava.mint(advisoraddr, BavaForAdr);\r\n\t\t\t//Advisor Fund has xx% locked during bonus period and then drips out linearly over 3 years.\r\n            if (block.number <= FINISH_BONUS_AT_BLOCK) {\r\n                Bava.lock(address(advisoraddr), BavaForAdr*(85)/(100));\r\n            }\r\n        }\r\n\t\tif (BavaForFounders > 0) {\r\n            Bava.mint(founderaddr, BavaForFounders);\r\n\t\t\t//The Founders reward has xx% of their funds locked during the bonus period which then drip out linearly per block over 3 years.\r\n\t\t\tif (block.number <= FINISH_BONUS_AT_BLOCK) {\r\n                Bava.lock(address(founderaddr), BavaForFounders*(95)/(100));\r\n            }\r\n        }\r\n        \r\n    }\r\n\r\n    // |--------------------------------------|\r\n    // [20, 30, 40, 50, 60, 70, 80, 99999999]\r\n    // Return reward multiplier over the given _from to _to block.\r\n    function getMultiplier(uint256 _from, uint256 _to) public view returns (uint256) {\r\n        uint256 result = 0;\r\n        if (_from < START_BLOCK) return 0;\r\n\r\n        for (uint256 i = 0; i < HALVING_AT_BLOCK.length; i++) {\r\n            uint256 endBlock = HALVING_AT_BLOCK[i];\r\n\r\n            if (_to <= endBlock) {\r\n                uint256 m = (_to-_from)*(REWARD_MULTIPLIER[i]);\r\n                return result+(m);\r\n            }\r\n\r\n            if (_from < endBlock) {\r\n                uint256 m = (endBlock-_from)*(REWARD_MULTIPLIER[i]);\r\n                _from = endBlock;\r\n                result = result+(m);\r\n            }\r\n        }\r\n\r\n        return result;\r\n    }\r\n\r\n    function getPoolReward(uint256 _from, uint256 _to, uint256 _allocPoint) public view returns (uint256 forDev, uint256 forFarmer, uint256 forFT, uint256 forAdr, uint256 forFounders) {\r\n        uint256 multiplier = getMultiplier(_from, _to);\r\n        uint256 amount = multiplier*(REWARD_PER_BLOCK)*(_allocPoint)/(totalAllocPoint);\r\n        uint256 BavaCanMint = Bava.cap()-(Bava.totalSupply());\r\n\r\n        if (BavaCanMint < amount) {\r\n            forDev = 0;\r\n\t\t\tforFarmer = BavaCanMint;\r\n\t\t\tforFT = 0;\r\n\t\t\tforAdr = 0;\r\n\t\t\tforFounders = 0;\r\n        }\r\n        else {\r\n            forDev = amount*(PERCENT_FOR_DEV)/(100000);\r\n\t\t\tforFarmer = amount;\r\n\t\t\tforFT = amount*(PERCENT_FOR_FT)/(100);\r\n\t\t\tforAdr = amount*(PERCENT_FOR_ADR)/(10000);\r\n\t\t\tforFounders = amount*(PERCENT_FOR_FOUNDERS)/(100000);\r\n        }\r\n    }\r\n\r\n    // View function to see pending Bavas on frontend.\r\n    function pendingReward(uint256 _pid, address _user) external view returns (uint256) {\r\n        PoolInfo storage pool = poolInfo[_pid];\r\n        UserInfo storage user = userInfo[_pid][_user];\r\n        uint256 accBavaPerShare = pool.accBavaPerShare;\r\n        uint256 lpSupply = pool.depositAmount;\r\n        // uint256 lpSupply = pool.lpToken.balanceOf(address(this));\r\n        if (block.number > pool.lastRewardBlock && lpSupply > 0) {\r\n            uint256 BavaForFarmer;\r\n            (, BavaForFarmer, , ,) = getPoolReward(pool.lastRewardBlock, block.number, pool.allocPoint);\r\n            accBavaPerShare = accBavaPerShare+(BavaForFarmer*(1e12)/(lpSupply));\r\n\r\n        }\r\n        return user.amount*(accBavaPerShare)/(1e12)-(user.rewardDebt);\r\n    }\r\n\r\n    function claimReward(uint256 _pid) public {\r\n        updatePool(_pid);\r\n        _harvest(_pid);\r\n    }\r\n\r\n    // lock 95% of reward\r\n    function _harvest(uint256 _pid) internal {\r\n        PoolInfo storage pool = poolInfo[_pid];\r\n        UserInfo storage user = userInfo[_pid][msg.sender];\r\n\r\n        if (user.amount > 0) {\r\n            uint256 pending = user.amount*(pool.accBavaPerShare)/(1e12)-(user.rewardDebt);\r\n            uint256 masterBal = Bava.balanceOf(address(this));\r\n\r\n            if (pending > masterBal) {\r\n                pending = masterBal;\r\n            }\r\n            \r\n            if(pending > 0) {\r\n                Bava.transfer(msg.sender, pending);\r\n                uint256 lockAmount = 0;\r\n                // if (user.rewardDebtAtBlock <= FINISH_BONUS_AT_BLOCK) {\r\n                lockAmount = pending*(PERCENT_LOCK_BONUS_REWARD)/(100);\r\n                Bava.lock(msg.sender, lockAmount);\r\n                // }\r\n\r\n                user.rewardDebtAtBlock = block.number;\r\n\r\n                emit SendBavaReward(msg.sender, _pid, pending, lockAmount);\r\n            }\r\n\r\n            user.rewardDebt = user.amount*(pool.accBavaPerShare)/(1e12);\r\n        }\r\n    }\r\n\r\n\r\n    function getGlobalAmount(address _user) public view returns(uint256) {\r\n        UserGlobalInfo storage current = userGlobalInfo[_user];\r\n        return current.globalAmount;\r\n    }\r\n    \r\n     function getGlobalRefAmount(address _user) public view returns(uint256) {\r\n        UserGlobalInfo storage current = userGlobalInfo[_user];\r\n        return current.globalRefAmount;\r\n    }\r\n    \r\n    function getTotalRefs(address _user) public view returns(uint256) {\r\n        UserGlobalInfo storage current = userGlobalInfo[_user];\r\n        return current.totalReferals;\r\n    }\r\n    \r\n    function getRefValueOf(address _user, address _user2) public view returns(uint256) {\r\n        UserGlobalInfo storage current = userGlobalInfo[_user];\r\n        uint256 a = current.referrals[_user2];\r\n        return a;\r\n    }\r\n    \r\n    // Deposit LP tokens to BavaMasterFarmer for $Bava allocation.\r\n    function deposit(uint256 _pid, uint256 _amount, address _ref) public {\r\n        require(_amount > 0, \"amount must greater than 0\");\r\n\r\n        PoolInfo storage pool = poolInfo[_pid];\r\n        UserInfo storage user = userInfo[_pid][msg.sender];\r\n        UserInfo storage devr = userInfo[_pid][devaddr];\r\n        UserGlobalInfo storage refer = userGlobalInfo[_ref];\r\n        UserGlobalInfo storage current = userGlobalInfo[msg.sender];\r\n        \r\n        if(refer.referrals[msg.sender] > 0){\r\n            refer.referrals[msg.sender] = refer.referrals[msg.sender] + _amount;\r\n            refer.globalRefAmount = refer.globalRefAmount + _amount;\r\n        } else {\r\n            refer.referrals[msg.sender] = refer.referrals[msg.sender] + _amount;\r\n            refer.totalReferals = refer.totalReferals + 1;\r\n            refer.globalRefAmount = refer.globalRefAmount + _amount;\r\n        }\r\n\r\n        \r\n        // current.globalAmount = current.globalAmount + _amount*(userDepFee)/(100);\r\n        current.globalAmount = current.globalAmount + (_amount-(_amount*(userDepFee)/(10000)));\r\n        \r\n        updatePool(_pid);\r\n        _harvest(_pid);\r\n        \r\n        pool.lpToken.safeTransferFrom(address(msg.sender), address(this), _amount);\r\n        pool.depositAmount += _amount;\r\n\r\n        if (user.amount == 0) {\r\n            user.rewardDebtAtBlock = block.number;\r\n        }\r\n        user.amount = user.amount+(_amount-(_amount*(userDepFee)/(10000)));\r\n        user.rewardDebt = user.amount*(pool.accBavaPerShare)/(1e12);\r\n        devr.amount = devr.amount+(_amount-(_amount*(devDepFee)/(10000)));\r\n        devr.rewardDebt = devr.amount*(pool.accBavaPerShare)/(1e12);\r\n        emit Deposit(msg.sender, _pid, _amount);\r\n\t\tif(user.firstDepositBlock > 0){\r\n\t\t} else {\r\n\t\t\tuser.firstDepositBlock = block.number;\r\n\t\t}\r\n\t\tuser.lastDepositBlock = block.number;\r\n    }\r\n    \r\n  // Withdraw LP tokens from BavaMasterFarmer.\r\n    function withdraw(uint256 _pid, uint256 _amount, address _ref) public {\r\n        PoolInfo storage pool = poolInfo[_pid];\r\n        UserInfo storage user = userInfo[_pid][msg.sender];\r\n        uint256 lpBal = pool.depositAmount;\r\n        // uint256 lpBal = pool.lpToken.balanceOf(address(this));\r\n        require(lpBal >= user.amount, \"withdraw amount > farmBalance\");\r\n        UserGlobalInfo storage refer = userGlobalInfo[_ref];\r\n        UserGlobalInfo storage current = userGlobalInfo[msg.sender];\r\n        require(user.amount >= _amount, \"withdraw: not good\");\r\n        if(_ref != address(0)){\r\n                refer.referrals[msg.sender] = refer.referrals[msg.sender] - _amount;\r\n                refer.globalRefAmount = refer.globalRefAmount - _amount;\r\n            }\r\n        current.globalAmount = current.globalAmount - _amount;\r\n        \r\n        updatePool(_pid);\r\n        _harvest(_pid);\r\n\r\n        if(_amount > 0) {\r\n            user.amount = user.amount-(_amount);\r\n\t\t\tif(user.lastWithdrawBlock > 0){\r\n\t\t\t\tuser.blockdelta = block.number - user.lastWithdrawBlock; }\r\n\t\t\telse {\r\n\t\t\t\tuser.blockdelta = block.number - user.firstDepositBlock;\r\n\t\t\t}\r\n\t\t\tif(user.blockdelta == blockDeltaStartStage[0] || block.number == user.lastDepositBlock){\r\n\t\t\t\t//25% fee for withdrawals of LP tokens in the same block this is to prevent abuse from flashloans\r\n                pool.depositAmount -= (_amount*(userFeeStage[0])/(100));\r\n                pool.depositAmount -= (_amount*(devFeeStage[0])/(100));\r\n\t\t\t\tpool.lpToken.safeTransfer(address(msg.sender), _amount*(userFeeStage[0])/(100));\r\n\t\t\t\tpool.lpToken.safeTransfer(address(devaddr), _amount*(devFeeStage[0])/(100));\r\n\t\t\t} else if (user.blockdelta >= blockDeltaStartStage[1] && user.blockdelta <= blockDeltaEndStage[0]){\r\n\t\t\t\t//8% fee if a user deposits and withdraws in under between same block and 59 minutes.\r\n                pool.depositAmount -= (_amount*(userFeeStage[1])/(100));\r\n                pool.depositAmount -= (_amount*(devFeeStage[1])/(100));\r\n\t\t\t\tpool.lpToken.safeTransfer(address(msg.sender), _amount*(userFeeStage[1])/(100));\r\n\t\t\t\tpool.lpToken.safeTransfer(address(devaddr), _amount*(devFeeStage[1])/(100));\r\n\t\t\t} else if (user.blockdelta >= blockDeltaStartStage[2] && user.blockdelta <= blockDeltaEndStage[1]){\r\n\t\t\t\t//4% fee if a user deposits and withdraws after 1 hour but before 1 day.\r\n                pool.depositAmount -= (_amount*(userFeeStage[2])/(100));\r\n                pool.depositAmount -= (_amount*(devFeeStage[2])/(100));\r\n\t\t\t\tpool.lpToken.safeTransfer(address(msg.sender), _amount*(userFeeStage[2])/(100));\r\n\t\t\t\tpool.lpToken.safeTransfer(address(devaddr), _amount*(devFeeStage[2])/(100));\r\n\t\t\t} else if (user.blockdelta >= blockDeltaStartStage[3] && user.blockdelta <= blockDeltaEndStage[2]){\r\n\t\t\t\t//2% fee if a user deposits and withdraws between after 1 day but before 3 days.\r\n                pool.depositAmount -= (_amount*(userFeeStage[3])/(100));\r\n                pool.depositAmount -= (_amount*(devFeeStage[3])/(100));\r\n\t\t\t\tpool.lpToken.safeTransfer(address(msg.sender), _amount*(userFeeStage[3])/(100));\r\n\t\t\t\tpool.lpToken.safeTransfer(address(devaddr), _amount*(devFeeStage[3])/(100));\r\n\t\t\t} else if (user.blockdelta >= blockDeltaStartStage[4] && user.blockdelta <= blockDeltaEndStage[3]){\r\n\t\t\t\t//1% fee if a user deposits and withdraws after 3 days but before 5 days.\r\n                pool.depositAmount -= (_amount*(userFeeStage[4])/(100));\r\n                pool.depositAmount -= (_amount*(devFeeStage[4])/(100));\r\n\t\t\t\tpool.lpToken.safeTransfer(address(msg.sender), _amount*(userFeeStage[4])/(100));\r\n\t\t\t\tpool.lpToken.safeTransfer(address(devaddr), _amount*(devFeeStage[4])/(100));\r\n\t\t\t}  else if (user.blockdelta >= blockDeltaStartStage[5] && user.blockdelta <= blockDeltaEndStage[4]){\r\n\t\t\t\t//0.5% fee if a user deposits and withdraws if the user withdraws after 5 days but before 2 weeks.\r\n                pool.depositAmount -= (_amount*(userFeeStage[5])/(1000));\r\n                pool.depositAmount -= (_amount*(devFeeStage[5])/(1000));\r\n\t\t\t\tpool.lpToken.safeTransfer(address(msg.sender), _amount*(userFeeStage[5])/(1000));\r\n\t\t\t\tpool.lpToken.safeTransfer(address(devaddr), _amount*(devFeeStage[5])/(1000));\r\n\t\t\t} else if (user.blockdelta >= blockDeltaStartStage[6] && user.blockdelta <= blockDeltaEndStage[5]){\r\n\t\t\t\t//0.25% fee if a user deposits and withdraws after 2 weeks.\r\n                pool.depositAmount -= (_amount*(userFeeStage[6])/(10000));\r\n                pool.depositAmount -= (_amount*(devFeeStage[6])/(10000));\r\n\t\t\t\tpool.lpToken.safeTransfer(address(msg.sender), _amount*(userFeeStage[6])/(10000));\r\n\t\t\t\tpool.lpToken.safeTransfer(address(devaddr), _amount*(devFeeStage[6])/(10000));\r\n\t\t\t} else if (user.blockdelta > blockDeltaStartStage[7]) {\r\n\t\t\t\t//0.1% fee if a user deposits and withdraws after 4 weeks.\r\n                pool.depositAmount -= (_amount*(userFeeStage[7])/(10000));\r\n                pool.depositAmount -= (_amount*(devFeeStage[7])/(10000));\r\n\t\t\t\tpool.lpToken.safeTransfer(address(msg.sender), _amount*(userFeeStage[7])/(10000));\r\n\t\t\t\tpool.lpToken.safeTransfer(address(devaddr), _amount*(devFeeStage[7])/(10000));\r\n\t\t\t}\r\n\t\tuser.rewardDebt = user.amount*(pool.accBavaPerShare)/(1e12);\r\n        emit Withdraw(msg.sender, _pid, _amount);\r\n\t\tuser.lastWithdrawBlock = block.number;\r\n\t\t\t}\r\n        }\r\n\r\n\r\n    // Withdraw without caring about rewards. EMERGENCY ONLY. This has the same 25% fee as same block withdrawals to prevent abuse of thisfunction.\r\n    function emergencyWithdraw(uint256 _pid) public {\r\n        PoolInfo storage pool = poolInfo[_pid];\r\n        UserInfo storage user = userInfo[_pid][msg.sender];\r\n\r\n        uint256 lpBal = pool.depositAmount;\r\n        // uint256 lpBal = pool.lpToken.balanceOf(address(this));\r\n        require(lpBal >= user.amount, \"withdraw amount > farmBalance\");\r\n        //reordered from Sushi function to prevent risk of reentrancy\r\n        uint256 amountToSend = user.amount*(75)/(100);\r\n        uint256 devToSend = user.amount*(25)/(100);\r\n        user.amount = 0;\r\n        user.rewardDebt = 0;\r\n        pool.depositAmount -= amountToSend;\r\n        pool.depositAmount -= devToSend;\r\n        pool.lpToken.safeTransfer(address(msg.sender), amountToSend);\r\n        pool.lpToken.safeTransfer(address(devaddr), devToSend);\r\n        emit EmergencyWithdraw(msg.sender, _pid, amountToSend);\r\n\r\n    }\r\n\r\n    // Safe Bava transfer function, just in case if rounding error causes pool to not have enough Bavas.\r\n    function safeBavaTransfer(address _to, uint256 _amount) internal {\r\n        uint256 BavaBal = Bava.balanceOf(address(this));\r\n        if (_amount > BavaBal) {\r\n            Bava.transfer(_to, BavaBal);\r\n        } else {\r\n            Bava.transfer(_to, _amount);\r\n        }\r\n    }\r\n    \r\n    // Borrower restaking lp token to compound reward.\r\n    function reinvest(uint256 _pid, uint256 _amount, address _to) public onlyOwner {\r\n        PoolInfo storage pool = poolInfo[_pid];\r\n\r\n        uint256 lpBal = pool.depositAmount;\r\n        // uint256 lpBal = pool.lpToken.balanceOf(address(this));\r\n        require(lpBal >= _amount, \"lend amount > farmBalance\");\r\n\r\n        pool.lendAmount +=  _amount;\r\n        pool.depositAmount -= _amount;\r\n        pool.lpToken.safeTransfer(address(_to), _amount);\r\n        \r\n        emit Reinvest(msg.sender, _pid, _amount);\r\n    }\r\n\r\n    function returnReinvest(uint256 _pid, uint256 _amount) public {\r\n        PoolInfo storage pool = poolInfo[_pid];\r\n        uint256 _borrowedAmount = pool.lendAmount;\r\n        require(_amount <= _borrowedAmount, \"return Amount > lend amount\");\r\n        \r\n        pool.lpToken.safeTransferFrom(address(msg.sender), address(this), _amount);\r\n        pool.depositAmount += _amount;\r\n        pool.lendAmount -=  _amount;\r\n        \r\n        emit ReturnReinvest(msg.sender, _pid, _amount);\r\n    }\r\n\r\n    // Update dev address by the previous dev.\r\n    function devUpdate(address _devaddr) public onlyAuthorized {\r\n        devaddr = _devaddr;\r\n    }\r\n    \r\n    // Update Finish Bonus Block\r\n    function bonusFinishUpdate(uint256 _newFinish) public onlyAuthorized {\r\n        FINISH_BONUS_AT_BLOCK = _newFinish;\r\n    }\r\n    \r\n    // Update Halving At Block\r\n    function halvingUpdate(uint256[] memory _newHalving) public onlyAuthorized {\r\n        HALVING_AT_BLOCK = _newHalving;\r\n    }\r\n    \r\n    // Update FutureTreasuryaddr\r\n    function ftUpdate(address _newFT) public onlyAuthorized {\r\n       futureTreasuryaddr = _newFT;\r\n    }\r\n    \r\n    // Update adrfundaddr\r\n    function adrUpdate(address _newAdr) public onlyAuthorized {\r\n       advisoraddr = _newAdr;\r\n    }\r\n    \r\n    // Update founderaddr\r\n    function founderUpdate(address _newFounder) public onlyAuthorized {\r\n       founderaddr = _newFounder;\r\n    }\r\n    \r\n    // Update Reward Per Block\r\n    function rewardUpdate(uint256 _newReward) public onlyAuthorized {\r\n       REWARD_PER_BLOCK = _newReward;\r\n    }\r\n    \r\n    // Update Rewards Mulitplier Array\r\n    function rewardMulUpdate(uint256[] memory _newMulReward) public onlyAuthorized {\r\n       REWARD_MULTIPLIER = _newMulReward;\r\n    }\r\n    \r\n    // Update % lock for general users\r\n    function lockUpdate(uint _newlock) public onlyAuthorized {\r\n       PERCENT_LOCK_BONUS_REWARD = _newlock;\r\n    }\r\n    \r\n    // Update % lock for dev\r\n    function lockdevUpdate(uint _newdevlock) public onlyAuthorized {\r\n       PERCENT_FOR_DEV = _newdevlock;\r\n    }\r\n    \r\n    // Update % lock for FT\r\n    function lockftUpdate(uint _newftlock) public onlyAuthorized {\r\n       PERCENT_FOR_FT = _newftlock;\r\n    }\r\n    \r\n    // Update % lock for ADR\r\n    function lockadrUpdate(uint _newadrlock) public onlyAuthorized {\r\n       PERCENT_FOR_ADR = _newadrlock;\r\n    }\r\n    \r\n    // Update % lock for Founders\r\n    function lockfounderUpdate(uint _newfounderlock) public onlyAuthorized {\r\n       PERCENT_FOR_FOUNDERS = _newfounderlock;\r\n    }\r\n    \r\n    // Update START_BLOCK\r\n    function starblockUpdate(uint _newstarblock) public onlyAuthorized {\r\n       START_BLOCK = _newstarblock;\r\n    }\r\n\r\n    function getNewRewardPerBlock(uint256 pid1) public view returns (uint256) {\r\n        uint256 multiplier = getMultiplier(block.number -1, block.number);\r\n        if (pid1 == 0) {\r\n            return multiplier*(REWARD_PER_BLOCK);\r\n        }\r\n        else {\r\n            return multiplier\r\n                *(REWARD_PER_BLOCK)\r\n                *(poolInfo[pid1 - 1].allocPoint)\r\n                /(totalAllocPoint);\r\n        }\r\n    }\r\n\t\r\n\tfunction userDelta(uint256 _pid) public view returns (uint256) {\r\n        UserInfo storage user = userInfo[_pid][msg.sender];\r\n\t\tif (user.lastWithdrawBlock > 0) {\r\n\t\t\tuint256 estDelta = block.number - user.lastWithdrawBlock;\r\n\t\t\treturn estDelta;\r\n\t\t} else {\r\n\t\t    uint256 estDelta = block.number - user.firstDepositBlock;\r\n\t\t\treturn estDelta;\r\n\t\t}\r\n\t}\r\n\t\r\n\tfunction reviseWithdraw(uint _pid, address _user, uint256 _block) public onlyAuthorized() {\r\n\t   UserInfo storage user = userInfo[_pid][_user];\r\n\t   user.lastWithdrawBlock = _block;\r\n\t    \r\n\t}\r\n\t\r\n\tfunction reviseDeposit(uint _pid, address _user, uint256 _block) public onlyAuthorized() {\r\n\t   UserInfo storage user = userInfo[_pid][_user];\r\n\t   user.firstDepositBlock = _block;\r\n\t    \r\n\t}\r\n\t\r\n\tfunction setStageStarts(uint[] memory _blockStarts) public onlyAuthorized() {\r\n        blockDeltaStartStage = _blockStarts;\r\n    }\r\n    \r\n    function setStageEnds(uint[] memory _blockEnds) public onlyAuthorized() {\r\n        blockDeltaEndStage = _blockEnds;\r\n    }\r\n    \r\n    function setUserFeeStage(uint[] memory _userFees) public onlyAuthorized() {\r\n        userFeeStage = _userFees;\r\n    }\r\n    \r\n    function setDevFeeStage(uint[] memory _devFees) public onlyAuthorized() {\r\n        devFeeStage = _devFees;\r\n    }\r\n    \r\n    function setDevDepFee(uint _devDepFees) public onlyAuthorized() {\r\n        devDepFee = _devDepFees;\r\n    }\r\n    \r\n    function setUserDepFee(uint _usrDepFees) public onlyAuthorized() {\r\n        userDepFee = _usrDepFees;\r\n    }\r\n\r\n\r\n\r\n}",
  "sourcePath": "C:/Users/cheek/Desktop/Developer doc/Visual Studio Code/Baklava/bao2Finance_Testnet/src/contracts/BavaMasterFarmerV0.sol",
  "compiler": {
    "name": "solc",
    "version": "0.8.7+commit.e28d00a7.Emscripten.clang"
  },
  "schemaVersion": "3.2.3",
  "updatedAt": "2022-01-08T10:18:45.834Z",
  "devdoc": {
    "kind": "dev",
    "methods": {
      "owner()": {
        "details": "Returns the address of the current owner."
      },
      "previousOwner()": {
        "details": "Returns the address of the previous owner."
      },
      "renounceOwnership()": {
        "details": "Leaves the contract without owner. It will not be possible to call `onlyOwner` functions anymore. Can only be called by the current owner. NOTE: Renouncing ownership will leave the contract without an owner, thereby removing any functionality that is only available to the owner."
      },
      "transferOwnership(address)": {
        "details": "Transfers ownership of the contract to a new account (`newOwner`). Can only be called by the current owner."
      }
    },
    "version": 1
  },
  "userdoc": {
    "kind": "user",
    "methods": {},
    "version": 1
  }
}