{
  "contractName": "BavaToken",
  "abi": [
    {
      "inputs": [
        {
          "internalType": "uint256",
          "name": "_lockFromBlock",
          "type": "uint256"
        },
        {
          "internalType": "uint256",
          "name": "_lockToBlock",
          "type": "uint256"
        },
        {
          "internalType": "address",
          "name": "_disPool",
          "type": "address"
        },
        {
          "internalType": "uint256",
          "name": "_burnPercent",
          "type": "uint256"
        },
        {
          "internalType": "uint256",
          "name": "_disPercent",
          "type": "uint256"
        },
        {
          "internalType": "uint256",
          "name": "_taxStartDate",
          "type": "uint256"
        }
      ],
      "stateMutability": "nonpayable",
      "type": "constructor"
    },
    {
      "anonymous": false,
      "inputs": [
        {
          "indexed": true,
          "internalType": "address",
          "name": "owner",
          "type": "address"
        },
        {
          "indexed": true,
          "internalType": "address",
          "name": "spender",
          "type": "address"
        },
        {
          "indexed": false,
          "internalType": "uint256",
          "name": "value",
          "type": "uint256"
        }
      ],
      "name": "Approval",
      "type": "event"
    },
    {
      "anonymous": false,
      "inputs": [
        {
          "indexed": true,
          "internalType": "address",
          "name": "_from",
          "type": "address"
        },
        {
          "indexed": false,
          "internalType": "uint256",
          "name": "_value",
          "type": "uint256"
        }
      ],
      "name": "Burn",
      "type": "event"
    },
    {
      "anonymous": false,
      "inputs": [
        {
          "indexed": true,
          "internalType": "address",
          "name": "delegator",
          "type": "address"
        },
        {
          "indexed": true,
          "internalType": "address",
          "name": "fromDelegate",
          "type": "address"
        },
        {
          "indexed": true,
          "internalType": "address",
          "name": "toDelegate",
          "type": "address"
        }
      ],
      "name": "DelegateChanged",
      "type": "event"
    },
    {
      "anonymous": false,
      "inputs": [
        {
          "indexed": true,
          "internalType": "address",
          "name": "delegate",
          "type": "address"
        },
        {
          "indexed": false,
          "internalType": "uint256",
          "name": "previousBalance",
          "type": "uint256"
        },
        {
          "indexed": false,
          "internalType": "uint256",
          "name": "newBalance",
          "type": "uint256"
        }
      ],
      "name": "DelegateVotesChanged",
      "type": "event"
    },
    {
      "anonymous": false,
      "inputs": [
        {
          "indexed": true,
          "internalType": "address",
          "name": "to",
          "type": "address"
        },
        {
          "indexed": false,
          "internalType": "uint256",
          "name": "value",
          "type": "uint256"
        }
      ],
      "name": "Lock",
      "type": "event"
    },
    {
      "anonymous": false,
      "inputs": [
        {
          "indexed": true,
          "internalType": "address",
          "name": "previousOwner",
          "type": "address"
        },
        {
          "indexed": true,
          "internalType": "address",
          "name": "newOwner",
          "type": "address"
        }
      ],
      "name": "OwnershipTransferred",
      "type": "event"
    },
    {
      "anonymous": false,
      "inputs": [
        {
          "indexed": true,
          "internalType": "address",
          "name": "from",
          "type": "address"
        },
        {
          "indexed": true,
          "internalType": "address",
          "name": "to",
          "type": "address"
        },
        {
          "indexed": false,
          "internalType": "uint256",
          "name": "value",
          "type": "uint256"
        }
      ],
      "name": "Transfer",
      "type": "event"
    },
    {
      "inputs": [],
      "name": "DELEGATION_TYPEHASH",
      "outputs": [
        {
          "internalType": "bytes32",
          "name": "",
          "type": "bytes32"
        }
      ],
      "stateMutability": "view",
      "type": "function",
      "constant": true
    },
    {
      "inputs": [],
      "name": "DOMAIN_TYPEHASH",
      "outputs": [
        {
          "internalType": "bytes32",
          "name": "",
          "type": "bytes32"
        }
      ],
      "stateMutability": "view",
      "type": "function",
      "constant": true
    },
    {
      "inputs": [
        {
          "internalType": "address",
          "name": "_toAdd",
          "type": "address"
        }
      ],
      "name": "addAuthorized",
      "outputs": [],
      "stateMutability": "nonpayable",
      "type": "function"
    },
    {
      "inputs": [
        {
          "internalType": "address",
          "name": "owner",
          "type": "address"
        },
        {
          "internalType": "address",
          "name": "spender",
          "type": "address"
        }
      ],
      "name": "allowance",
      "outputs": [
        {
          "internalType": "uint256",
          "name": "",
          "type": "uint256"
        }
      ],
      "stateMutability": "view",
      "type": "function",
      "constant": true
    },
    {
      "inputs": [
        {
          "internalType": "address",
          "name": "spender",
          "type": "address"
        },
        {
          "internalType": "uint256",
          "name": "amount",
          "type": "uint256"
        }
      ],
      "name": "approve",
      "outputs": [
        {
          "internalType": "bool",
          "name": "",
          "type": "bool"
        }
      ],
      "stateMutability": "nonpayable",
      "type": "function"
    },
    {
      "inputs": [
        {
          "internalType": "address",
          "name": "",
          "type": "address"
        }
      ],
      "name": "authorized",
      "outputs": [
        {
          "internalType": "bool",
          "name": "",
          "type": "bool"
        }
      ],
      "stateMutability": "view",
      "type": "function",
      "constant": true
    },
    {
      "inputs": [
        {
          "internalType": "address",
          "name": "account",
          "type": "address"
        }
      ],
      "name": "balanceOf",
      "outputs": [
        {
          "internalType": "uint256",
          "name": "",
          "type": "uint256"
        }
      ],
      "stateMutability": "view",
      "type": "function",
      "constant": true
    },
    {
      "inputs": [],
      "name": "burnPercent",
      "outputs": [
        {
          "internalType": "uint256",
          "name": "",
          "type": "uint256"
        }
      ],
      "stateMutability": "view",
      "type": "function",
      "constant": true
    },
    {
      "inputs": [
        {
          "internalType": "address",
          "name": "",
          "type": "address"
        },
        {
          "internalType": "uint32",
          "name": "",
          "type": "uint32"
        }
      ],
      "name": "checkpoints",
      "outputs": [
        {
          "internalType": "uint32",
          "name": "fromBlock",
          "type": "uint32"
        },
        {
          "internalType": "uint256",
          "name": "votes",
          "type": "uint256"
        }
      ],
      "stateMutability": "view",
      "type": "function",
      "constant": true
    },
    {
      "inputs": [],
      "name": "decimals",
      "outputs": [
        {
          "internalType": "uint8",
          "name": "",
          "type": "uint8"
        }
      ],
      "stateMutability": "view",
      "type": "function",
      "constant": true
    },
    {
      "inputs": [
        {
          "internalType": "address",
          "name": "spender",
          "type": "address"
        },
        {
          "internalType": "uint256",
          "name": "subtractedValue",
          "type": "uint256"
        }
      ],
      "name": "decreaseAllowance",
      "outputs": [
        {
          "internalType": "bool",
          "name": "",
          "type": "bool"
        }
      ],
      "stateMutability": "nonpayable",
      "type": "function"
    },
    {
      "inputs": [],
      "name": "disPercent",
      "outputs": [
        {
          "internalType": "uint256",
          "name": "",
          "type": "uint256"
        }
      ],
      "stateMutability": "view",
      "type": "function",
      "constant": true
    },
    {
      "inputs": [],
      "name": "disPool",
      "outputs": [
        {
          "internalType": "address",
          "name": "",
          "type": "address"
        }
      ],
      "stateMutability": "view",
      "type": "function",
      "constant": true
    },
    {
      "inputs": [],
      "name": "dynamicTaxReduction",
      "outputs": [
        {
          "internalType": "uint256",
          "name": "",
          "type": "uint256"
        }
      ],
      "stateMutability": "view",
      "type": "function",
      "constant": true
    },
    {
      "inputs": [
        {
          "internalType": "address",
          "name": "spender",
          "type": "address"
        },
        {
          "internalType": "uint256",
          "name": "addedValue",
          "type": "uint256"
        }
      ],
      "name": "increaseAllowance",
      "outputs": [
        {
          "internalType": "bool",
          "name": "",
          "type": "bool"
        }
      ],
      "stateMutability": "nonpayable",
      "type": "function"
    },
    {
      "inputs": [
        {
          "internalType": "address",
          "name": "",
          "type": "address"
        }
      ],
      "name": "isWhitelistedFrom",
      "outputs": [
        {
          "internalType": "bool",
          "name": "",
          "type": "bool"
        }
      ],
      "stateMutability": "view",
      "type": "function",
      "constant": true
    },
    {
      "inputs": [
        {
          "internalType": "address",
          "name": "",
          "type": "address"
        }
      ],
      "name": "isWhitelistedTo",
      "outputs": [
        {
          "internalType": "bool",
          "name": "",
          "type": "bool"
        }
      ],
      "stateMutability": "view",
      "type": "function",
      "constant": true
    },
    {
      "inputs": [],
      "name": "lockFromBlock",
      "outputs": [
        {
          "internalType": "uint256",
          "name": "",
          "type": "uint256"
        }
      ],
      "stateMutability": "view",
      "type": "function",
      "constant": true
    },
    {
      "inputs": [],
      "name": "lockToBlock",
      "outputs": [
        {
          "internalType": "uint256",
          "name": "",
          "type": "uint256"
        }
      ],
      "stateMutability": "view",
      "type": "function",
      "constant": true
    },
    {
      "inputs": [],
      "name": "manualMintLimit",
      "outputs": [
        {
          "internalType": "uint256",
          "name": "",
          "type": "uint256"
        }
      ],
      "stateMutability": "view",
      "type": "function",
      "constant": true
    },
    {
      "inputs": [],
      "name": "manualMinted",
      "outputs": [
        {
          "internalType": "uint256",
          "name": "",
          "type": "uint256"
        }
      ],
      "stateMutability": "view",
      "type": "function",
      "constant": true
    },
    {
      "inputs": [],
      "name": "minimumSupply",
      "outputs": [
        {
          "internalType": "uint256",
          "name": "",
          "type": "uint256"
        }
      ],
      "stateMutability": "view",
      "type": "function",
      "constant": true
    },
    {
      "inputs": [],
      "name": "name",
      "outputs": [
        {
          "internalType": "string",
          "name": "",
          "type": "string"
        }
      ],
      "stateMutability": "view",
      "type": "function",
      "constant": true
    },
    {
      "inputs": [
        {
          "internalType": "address",
          "name": "",
          "type": "address"
        }
      ],
      "name": "nonces",
      "outputs": [
        {
          "internalType": "uint256",
          "name": "",
          "type": "uint256"
        }
      ],
      "stateMutability": "view",
      "type": "function",
      "constant": true
    },
    {
      "inputs": [
        {
          "internalType": "address",
          "name": "",
          "type": "address"
        }
      ],
      "name": "numCheckpoints",
      "outputs": [
        {
          "internalType": "uint32",
          "name": "",
          "type": "uint32"
        }
      ],
      "stateMutability": "view",
      "type": "function",
      "constant": true
    },
    {
      "inputs": [],
      "name": "owner",
      "outputs": [
        {
          "internalType": "address",
          "name": "",
          "type": "address"
        }
      ],
      "stateMutability": "view",
      "type": "function",
      "constant": true
    },
    {
      "inputs": [],
      "name": "previousOwner",
      "outputs": [
        {
          "internalType": "address",
          "name": "",
          "type": "address"
        }
      ],
      "stateMutability": "view",
      "type": "function",
      "constant": true
    },
    {
      "inputs": [
        {
          "internalType": "address",
          "name": "newOwner",
          "type": "address"
        }
      ],
      "name": "reclaimOwnership",
      "outputs": [],
      "stateMutability": "nonpayable",
      "type": "function"
    },
    {
      "inputs": [
        {
          "internalType": "address",
          "name": "_toRemove",
          "type": "address"
        }
      ],
      "name": "removeAuthorized",
      "outputs": [],
      "stateMutability": "nonpayable",
      "type": "function"
    },
    {
      "inputs": [],
      "name": "renounceOwnership",
      "outputs": [],
      "stateMutability": "nonpayable",
      "type": "function"
    },
    {
      "inputs": [],
      "name": "symbol",
      "outputs": [
        {
          "internalType": "string",
          "name": "",
          "type": "string"
        }
      ],
      "stateMutability": "view",
      "type": "function",
      "constant": true
    },
    {
      "inputs": [],
      "name": "taxReductionDuration",
      "outputs": [
        {
          "internalType": "uint256",
          "name": "",
          "type": "uint256"
        }
      ],
      "stateMutability": "view",
      "type": "function",
      "constant": true
    },
    {
      "inputs": [],
      "name": "taxStartDate",
      "outputs": [
        {
          "internalType": "uint256",
          "name": "",
          "type": "uint256"
        }
      ],
      "stateMutability": "view",
      "type": "function",
      "constant": true
    },
    {
      "inputs": [],
      "name": "totalSupply",
      "outputs": [
        {
          "internalType": "uint256",
          "name": "",
          "type": "uint256"
        }
      ],
      "stateMutability": "view",
      "type": "function",
      "constant": true
    },
    {
      "inputs": [
        {
          "internalType": "address",
          "name": "newOwner",
          "type": "address"
        }
      ],
      "name": "transferOwnership",
      "outputs": [],
      "stateMutability": "nonpayable",
      "type": "function"
    },
    {
      "inputs": [],
      "name": "cap",
      "outputs": [
        {
          "internalType": "uint256",
          "name": "",
          "type": "uint256"
        }
      ],
      "stateMutability": "view",
      "type": "function",
      "constant": true
    },
    {
      "inputs": [
        {
          "internalType": "uint256",
          "name": "_newCap",
          "type": "uint256"
        }
      ],
      "name": "capUpdate",
      "outputs": [],
      "stateMutability": "nonpayable",
      "type": "function"
    },
    {
      "inputs": [
        {
          "internalType": "uint256",
          "name": "_newLockFrom",
          "type": "uint256"
        }
      ],
      "name": "lockFromUpdate",
      "outputs": [],
      "stateMutability": "nonpayable",
      "type": "function"
    },
    {
      "inputs": [
        {
          "internalType": "uint256",
          "name": "_newLockTo",
          "type": "uint256"
        }
      ],
      "name": "lockToUpdate",
      "outputs": [],
      "stateMutability": "nonpayable",
      "type": "function"
    },
    {
      "inputs": [
        {
          "internalType": "uint256",
          "name": "_newTaxStartDate",
          "type": "uint256"
        }
      ],
      "name": "taxStartDateUpdate",
      "outputs": [],
      "stateMutability": "nonpayable",
      "type": "function"
    },
    {
      "inputs": [
        {
          "internalType": "uint256",
          "name": "_newBurnPercent",
          "type": "uint256"
        }
      ],
      "name": "burnPercentUpdate",
      "outputs": [],
      "stateMutability": "nonpayable",
      "type": "function"
    },
    {
      "inputs": [
        {
          "internalType": "uint256",
          "name": "_newMinimumSupply",
          "type": "uint256"
        }
      ],
      "name": "minimumSupplyUpdate",
      "outputs": [],
      "stateMutability": "nonpayable",
      "type": "function"
    },
    {
      "inputs": [
        {
          "internalType": "address",
          "name": "_newDisPool",
          "type": "address"
        }
      ],
      "name": "disPoolUpdate",
      "outputs": [],
      "stateMutability": "nonpayable",
      "type": "function"
    },
    {
      "inputs": [
        {
          "internalType": "uint256",
          "name": "_newDisPercent",
          "type": "uint256"
        }
      ],
      "name": "disPercentUpdate",
      "outputs": [],
      "stateMutability": "nonpayable",
      "type": "function"
    },
    {
      "inputs": [
        {
          "internalType": "uint256",
          "name": "_newTaxReductionDuration",
          "type": "uint256"
        }
      ],
      "name": "taxReductionDurationUpdate",
      "outputs": [],
      "stateMutability": "nonpayable",
      "type": "function"
    },
    {
      "inputs": [
        {
          "internalType": "uint256",
          "name": "_newDynamicTaxReduction",
          "type": "uint256"
        }
      ],
      "name": "dynamicTaxReductionUpdate",
      "outputs": [],
      "stateMutability": "nonpayable",
      "type": "function"
    },
    {
      "inputs": [
        {
          "internalType": "address",
          "name": "newWhitelist",
          "type": "address"
        }
      ],
      "name": "setWhitelistedTo",
      "outputs": [],
      "stateMutability": "nonpayable",
      "type": "function"
    },
    {
      "inputs": [
        {
          "internalType": "address",
          "name": "newWhitelist",
          "type": "address"
        }
      ],
      "name": "removeWhitelistedTo",
      "outputs": [],
      "stateMutability": "nonpayable",
      "type": "function"
    },
    {
      "inputs": [
        {
          "internalType": "address",
          "name": "newWhitelist",
          "type": "address"
        }
      ],
      "name": "setWhitelistedFrom",
      "outputs": [],
      "stateMutability": "nonpayable",
      "type": "function"
    },
    {
      "inputs": [
        {
          "internalType": "address",
          "name": "newWhitelist",
          "type": "address"
        }
      ],
      "name": "removeWhitelistedFrom",
      "outputs": [],
      "stateMutability": "nonpayable",
      "type": "function"
    },
    {
      "inputs": [],
      "name": "unlockedSupply",
      "outputs": [
        {
          "internalType": "uint256",
          "name": "",
          "type": "uint256"
        }
      ],
      "stateMutability": "view",
      "type": "function",
      "constant": true
    },
    {
      "inputs": [],
      "name": "lockedSupply",
      "outputs": [
        {
          "internalType": "uint256",
          "name": "",
          "type": "uint256"
        }
      ],
      "stateMutability": "view",
      "type": "function",
      "constant": true
    },
    {
      "inputs": [],
      "name": "circulatingSupply",
      "outputs": [
        {
          "internalType": "uint256",
          "name": "",
          "type": "uint256"
        }
      ],
      "stateMutability": "view",
      "type": "function",
      "constant": true
    },
    {
      "inputs": [],
      "name": "totalLock",
      "outputs": [
        {
          "internalType": "uint256",
          "name": "",
          "type": "uint256"
        }
      ],
      "stateMutability": "view",
      "type": "function",
      "constant": true
    },
    {
      "inputs": [
        {
          "internalType": "address",
          "name": "_to",
          "type": "address"
        },
        {
          "internalType": "uint256",
          "name": "_amount",
          "type": "uint256"
        }
      ],
      "name": "mint",
      "outputs": [],
      "stateMutability": "nonpayable",
      "type": "function"
    },
    {
      "inputs": [
        {
          "internalType": "address",
          "name": "_to",
          "type": "address"
        },
        {
          "internalType": "uint256",
          "name": "_amount",
          "type": "uint256"
        }
      ],
      "name": "manualMint",
      "outputs": [],
      "stateMutability": "nonpayable",
      "type": "function"
    },
    {
      "inputs": [
        {
          "internalType": "address",
          "name": "to",
          "type": "address"
        },
        {
          "internalType": "uint256",
          "name": "amount",
          "type": "uint256"
        }
      ],
      "name": "transfer",
      "outputs": [
        {
          "internalType": "bool",
          "name": "",
          "type": "bool"
        }
      ],
      "stateMutability": "nonpayable",
      "type": "function"
    },
    {
      "inputs": [
        {
          "internalType": "address",
          "name": "from",
          "type": "address"
        },
        {
          "internalType": "address",
          "name": "to",
          "type": "address"
        },
        {
          "internalType": "uint256",
          "name": "amount",
          "type": "uint256"
        }
      ],
      "name": "transferFrom",
      "outputs": [
        {
          "internalType": "bool",
          "name": "",
          "type": "bool"
        }
      ],
      "stateMutability": "nonpayable",
      "type": "function"
    },
    {
      "inputs": [
        {
          "internalType": "address",
          "name": "_holder",
          "type": "address"
        }
      ],
      "name": "totalBalanceOf",
      "outputs": [
        {
          "internalType": "uint256",
          "name": "",
          "type": "uint256"
        }
      ],
      "stateMutability": "view",
      "type": "function",
      "constant": true
    },
    {
      "inputs": [
        {
          "internalType": "address",
          "name": "_holder",
          "type": "address"
        }
      ],
      "name": "lockOf",
      "outputs": [
        {
          "internalType": "uint256",
          "name": "",
          "type": "uint256"
        }
      ],
      "stateMutability": "view",
      "type": "function",
      "constant": true
    },
    {
      "inputs": [
        {
          "internalType": "address",
          "name": "_holder",
          "type": "address"
        }
      ],
      "name": "lastUnlockBlock",
      "outputs": [
        {
          "internalType": "uint256",
          "name": "",
          "type": "uint256"
        }
      ],
      "stateMutability": "view",
      "type": "function",
      "constant": true
    },
    {
      "inputs": [
        {
          "internalType": "address",
          "name": "_holder",
          "type": "address"
        },
        {
          "internalType": "uint256",
          "name": "_amount",
          "type": "uint256"
        }
      ],
      "name": "lock",
      "outputs": [],
      "stateMutability": "nonpayable",
      "type": "function"
    },
    {
      "inputs": [
        {
          "internalType": "address",
          "name": "_holder",
          "type": "address"
        }
      ],
      "name": "canUnlockAmount",
      "outputs": [
        {
          "internalType": "uint256",
          "name": "",
          "type": "uint256"
        }
      ],
      "stateMutability": "view",
      "type": "function",
      "constant": true
    },
    {
      "inputs": [],
      "name": "unlock",
      "outputs": [],
      "stateMutability": "nonpayable",
      "type": "function"
    },
    {
      "inputs": [
        {
          "internalType": "address",
          "name": "_to",
          "type": "address"
        }
      ],
      "name": "transferAll",
      "outputs": [],
      "stateMutability": "nonpayable",
      "type": "function"
    },
    {
      "inputs": [
        {
          "internalType": "address",
          "name": "delegator",
          "type": "address"
        }
      ],
      "name": "delegates",
      "outputs": [
        {
          "internalType": "address",
          "name": "",
          "type": "address"
        }
      ],
      "stateMutability": "view",
      "type": "function",
      "constant": true
    },
    {
      "inputs": [
        {
          "internalType": "address",
          "name": "delegatee",
          "type": "address"
        }
      ],
      "name": "delegate",
      "outputs": [],
      "stateMutability": "nonpayable",
      "type": "function"
    },
    {
      "inputs": [
        {
          "internalType": "address",
          "name": "delegatee",
          "type": "address"
        },
        {
          "internalType": "uint256",
          "name": "nonce",
          "type": "uint256"
        },
        {
          "internalType": "uint256",
          "name": "expiry",
          "type": "uint256"
        },
        {
          "internalType": "uint8",
          "name": "v",
          "type": "uint8"
        },
        {
          "internalType": "bytes32",
          "name": "r",
          "type": "bytes32"
        },
        {
          "internalType": "bytes32",
          "name": "s",
          "type": "bytes32"
        }
      ],
      "name": "delegateBySig",
      "outputs": [],
      "stateMutability": "nonpayable",
      "type": "function"
    },
    {
      "inputs": [
        {
          "internalType": "address",
          "name": "account",
          "type": "address"
        }
      ],
      "name": "getCurrentVotes",
      "outputs": [
        {
          "internalType": "uint256",
          "name": "",
          "type": "uint256"
        }
      ],
      "stateMutability": "view",
      "type": "function",
      "constant": true
    },
    {
      "inputs": [
        {
          "internalType": "address",
          "name": "account",
          "type": "address"
        },
        {
          "internalType": "uint256",
          "name": "blockNumber",
          "type": "uint256"
        }
      ],
      "name": "getPriorVotes",
      "outputs": [
        {
          "internalType": "uint256",
          "name": "",
          "type": "uint256"
        }
      ],
      "stateMutability": "view",
      "type": "function",
      "constant": true
    }
  ],
  "bytecode": "0x60806040526b033b2e3c9fd0803ce80000006008556b019d971e4fe8401e74000000600c556000600d5569d3c21bcecceda1000000600e553480156200004457600080fd5b50604051620032a5380380620032a5833981016040819052620000679162000225565b60408051808201825260098152682130bb30aa37b5b2b760b91b6020808301918252835180850190945260048452634241564160e01b908401528151919291620000b4916003916200017f565b508051620000ca9060049060208401906200017f565b50506005805460ff19166012179055506000620000e43390565b60058054610100600160a81b0319166101006001600160a01b03841690810291909117909155604051919250906000907f8be0079c531659141344cd1fd0a4f28419497f9722a3daafe3b4186f6b6457e0908290a350600a958655600b94909455600f80546001600160a01b0319166001600160a01b03949094169390931790925560105560115560125562093a80601355601455620002c6565b8280546200018d9062000289565b90600052602060002090601f016020900481019282620001b15760008555620001fc565b82601f10620001cc57805160ff1916838001178555620001fc565b82800160010185558215620001fc579182015b82811115620001fc578251825591602001919060010190620001df565b506200020a9291506200020e565b5090565b5b808211156200020a57600081556001016200020f565b60008060008060008060c087890312156200023f57600080fd5b86516020880151604089015191975095506001600160a01b03811681146200026657600080fd5b80945050606087015192506080870151915060a087015190509295509295509295565b600181811c908216806200029e57607f821691505b60208210811415620002c057634e487b7160e01b600052602260045260246000fd5b50919050565b612fcf80620002d66000396000f3fe608060405234801561001057600080fd5b50600436106103925760003560e01c80637ede036d116101e0578063c3cda52011610110578063e6b2fb4a116100a8578063e6b2fb4a1461088e578063e7a324dc14610897578063e7c5372c146108be578063f0f8f356146108d1578063f1127ed8146108e4578063f2fde38b1461093b578063f75672441461094e578063f85b84a414610961578063fd3d27b81461096a57600080fd5b8063c3cda520146107c2578063c6ef9246146107d5578063c7c8db3e146107de578063ca04d2d8146107f1578063ca5c7b9114610814578063cf1c316a1461081c578063dd62ed3e1461082f578063e2657da114610868578063e4c5ff461461087b57600080fd5b8063a00c950311610183578063a00c95031461071c578063a3a7e7f314610725578063a457c2d714610738578063a69df4b51461074b578063a9059cbb14610753578063a90fa60314610766578063b4b5ea5714610779578063b91816111461078c578063c38533c6146107af57600080fd5b80637ede036d146106a357806384036fb9146106ac57806389a2867c146106bf5780638cdbcdc6146106e85780638da5cb5b146106fb5780638e875e1a146107035780639358928b1461070c57806395d89b411461071457600080fd5b80633b6b8183116102c65780635b0140291161025e5780635b014029146105ca5780635c19a95c146105ed57806366fc237b14610600578063674f220f146106095780636fcfff451461061a57806370a0823114610655578063715018a614610668578063782d6fe1146106705780637ecebe001461068357600080fd5b80633b6b8183146104f057806340346c491461050357806340c10f1914610516578063485d7d94146105295780634b0ee02a1461053c5780634b30c23e1461054f5780634d28b4ba14610562578063587cde1e146105755780635a46d3b5146105a157600080fd5b806320606b701161033957806320606b701461042d57806323b872dd1461045457806327ba6e1114610467578063282d3fdf14610492578063313ce567146104a5578063355274ea146104ba5780633838d4e3146104c257806339509351146104d55780633a1aae35146104e857600080fd5b806303807ee51461039757806306fdde03146103b3578063095ea7b3146103c85780630cb285e2146103eb57806318160ddd1461040057806318325c3a146104085780631995600114610411578063202b17601461041a575b600080fd5b6103a060105481565b6040519081526020015b60405180910390f35b6103bb610972565b6040516103aa9190612c74565b6103db6103d6366004612b91565b610a04565b60405190151581526020016103aa565b6103fe6103f9366004612c5b565b610a1b565b005b6002546103a0565b6103a060125481565b6103a060135481565b6103a0610428366004612b07565b610a56565b6103a07f8cad95687ba82c2ce50e74f7b754645e5117c3a5bec8151c0726d5857980a86681565b6103db610462366004612b55565b610b1d565b600f5461047a906001600160a01b031681565b6040516001600160a01b0390911681526020016103aa565b6103fe6104a0366004612b91565b610b85565b60055460405160ff90911681526020016103aa565b6008546103a0565b6103fe6104d0366004612b07565b610d4d565b6103db6104e3366004612b91565b610de0565b6009546103a0565b6103fe6104fe366004612c5b565b610e1b565b6103fe610511366004612c5b565b610e56565b6103fe610524366004612b91565b610e91565b6103fe610537366004612b07565b610efa565b6103a061054a366004612b07565b610f61565b6103fe61055d366004612b07565b610f8f565b6103fe610570366004612b07565b610fe7565b61047a610583366004612b07565b6001600160a01b039081166000908152601960205260409020541690565b6103a06105af366004612b07565b6001600160a01b031660009081526015602052604090205490565b6103db6105d8366004612b07565b60176020526000908152604090205460ff1681565b6103fe6105fb366004612b07565b611076565b6103a0600a5481565b6006546001600160a01b031661047a565b610640610628366004612b07565b601b6020526000908152604090205463ffffffff1681565b60405163ffffffff90911681526020016103aa565b6103a0610663366004612b07565b611083565b6103fe61109e565b6103a061067e366004612b91565b61111e565b6103a0610691366004612b07565b601c6020526000908152604090205481565b6103a0600e5481565b6103fe6106ba366004612c5b565b611383565b6103a06106cd366004612b07565b6001600160a01b031660009081526016602052604090205490565b6103fe6106f6366004612c5b565b6113be565b61047a6113f9565b6103a0600b5481565b6103a061140d565b6103bb61141d565b6103a060145481565b6103fe610733366004612b07565b61142c565b6103db610746366004612b91565b61151b565b6103fe61156a565b6103db610761366004612b91565b61163e565b6103fe610774366004612b07565b61169d565b6103a0610787366004612b07565b6117df565b6103db61079a366004612b07565b60076020526000908152604090205460ff1681565b6103fe6107bd366004612c5b565b611853565b6103fe6107d0366004612bbb565b61188e565b6103a060115481565b6103fe6107ec366004612c5b565b611b5c565b6103db6107ff366004612b07565b60186020526000908152604090205460ff1681565b6103a0611b97565b6103fe61082a366004612b07565b611ba2565b6103a061083d366004612b22565b6001600160a01b03918216600090815260016020908152604080832093909416825291909152205490565b6103fe610876366004612b07565b611bf6565b6103fe610889366004612b91565b611c85565b6103a0600d5481565b6103a07fe48329057bfd03d55e49b547132e39cffd9c1820ad7b9d4c5307691425d15adf81565b6103fe6108cc366004612c5b565b611d0b565b6103fe6108df366004612c5b565b611d46565b61091f6108f2366004612c1b565b601a6020908152600092835260408084209091529082529020805460019091015463ffffffff9091169082565b6040805163ffffffff90931683526020830191909152016103aa565b6103fe610949366004612b07565b611d81565b6103fe61095c366004612b07565b611e16565b6103a0600c5481565b6103a0611ea9565b60606003805461098190612e2e565b80601f01602080910402602001604051908101604052809291908181526020018280546109ad90612e2e565b80156109fa5780601f106109cf576101008083540402835291602001916109fa565b820191906000526020600020905b8154815290600101906020018083116109dd57829003601f168201915b5050505050905090565b6000610a11338484611ec1565b5060015b92915050565b3360009081526007602052604090205460ff1680610a48575033610a3d6113f9565b6001600160a01b0316145b610a5157600080fd5b600b55565b6000600a54431015610a6a57506000919050565b600b544310610a8f57506001600160a01b031660009081526015602052604090205490565b6001600160a01b038216600090815260166020526040812054610ab29043612df2565b6001600160a01b038416600090815260166020526040812054600b549293509091610add9190612df2565b6001600160a01b0385166000908152601560205260409020549091508190610b06908490612dd3565b610b109190612d9c565b949350505050565b919050565b6001600160a01b03821660009081526017602052604081205460ff1680610b5357503360009081526018602052604090205460ff165b15610b6a57610b63848484611fe6565b9050610b7e565b610b638484610b79853361204a565b611fe6565b9392505050565b3360009081526007602052604090205460ff1680610bb2575033610ba76113f9565b6001600160a01b0316145b610bbb57600080fd5b6001600160a01b038216610c165760405162461bcd60e51b815260206004820152601f60248201527f45524332303a206c6f636b20746f20746865207a65726f20616464726573730060448201526064015b60405180910390fd5b610c1f82611083565b811115610c6e5760405162461bcd60e51b815260206004820152601e60248201527f45524332303a206c6f636b20616d6f756e74206f76657220626c616e636500006044820152606401610c0d565b610c798230836120e3565b6001600160a01b038216600090815260156020526040902054610c9d908290612d5c565b6001600160a01b038316600090815260156020526040902055600954610cc4908290612d5c565b600955600a546001600160a01b0383166000908152601660205260409020541015610d0657600a546001600160a01b0383166000908152601660205260409020555b816001600160a01b03167f625fed9875dada8643f2418b838ae0bc78d9a148a18eee4ee1979ff0f3f5d42782604051610d4191815260200190565b60405180910390a25050565b3360009081526007602052604090205460ff1680610d7a575033610d6f6113f9565b6001600160a01b0316145b610d8357600080fd5b6001600160a01b03811660009081526018602052604090205460ff1615610dbc5760405162461bcd60e51b8152600401610c0d90612cfe565b6001600160a01b03166000908152601860205260409020805460ff19166001179055565b3360008181526001602090815260408083206001600160a01b03871684529091528120549091610a11918590610e169086612125565b611ec1565b3360009081526007602052604090205460ff1680610e48575033610e3d6113f9565b6001600160a01b0316145b610e5157600080fd5b601455565b3360009081526007602052604090205460ff1680610e83575033610e786113f9565b6001600160a01b0316145b610e8c57600080fd5b600855565b3360009081526007602052604090205460ff1680610ebe575033610eb36113f9565b6001600160a01b0316145b610ec757600080fd5b610ed18282612184565b6001600160a01b03808316600090815260196020526040812054610ef692168361225d565b5050565b6005546001600160a01b03610100909104163314610f2a5760405162461bcd60e51b8152600401610c0d90612cc9565b6001600160a01b038116331415610f4057600080fd5b6001600160a01b03166000908152600760205260409020805460ff19169055565b6000610f6c82611083565b6001600160a01b038316600090815260156020526040902054610a159190612d5c565b3360009081526007602052604090205460ff1680610fbc575033610fb16113f9565b6001600160a01b0316145b610fc557600080fd5b600f80546001600160a01b0319166001600160a01b0392909216919091179055565b3360009081526007602052604090205460ff16806110145750336110096113f9565b6001600160a01b0316145b61101d57600080fd5b6001600160a01b03811660009081526018602052604090205460ff166110555760405162461bcd60e51b8152600401610c0d90612d2b565b6001600160a01b03166000908152601860205260409020805460ff19169055565b61108033826123bc565b50565b6001600160a01b031660009081526020819052604090205490565b6005546001600160a01b036101009091041633146110ce5760405162461bcd60e51b8152600401610c0d90612cc9565b60055460405160009161010090046001600160a01b0316907f8be0079c531659141344cd1fd0a4f28419497f9722a3daafe3b4186f6b6457e0908390a360058054610100600160a81b0319169055565b600043821061117f5760405162461bcd60e51b815260206004820152602760248201527f424156413a3a6765745072696f72566f7465733a206e6f742079657420646574604482015266195c9b5a5b995960ca1b6064820152608401610c0d565b6001600160a01b0383166000908152601b602052604090205463ffffffff16806111ad576000915050610a15565b6001600160a01b0384166000908152601a6020526040812084916111d2600185612e09565b63ffffffff9081168252602082019290925260400160002054161161123b576001600160a01b0384166000908152601a6020526040812090611215600184612e09565b63ffffffff1663ffffffff16815260200190815260200160002060010154915050610a15565b6001600160a01b0384166000908152601a6020908152604080832083805290915290205463ffffffff16831015611276576000915050610a15565b600080611284600184612e09565b90505b8163ffffffff168163ffffffff16111561134c57600060026112a98484612e09565b6112b39190612db0565b6112bd9083612e09565b6001600160a01b0388166000908152601a6020908152604080832063ffffffff808616855290835292819020815180830190925280549093168082526001909301549181019190915291925087141561132057602001519450610a159350505050565b805163ffffffff1687111561133757819350611345565b611342600183612e09565b92505b5050611287565b506001600160a01b0385166000908152601a6020908152604080832063ffffffff9094168352929052206001015491505092915050565b3360009081526007602052604090205460ff16806113b05750336113a56113f9565b6001600160a01b0316145b6113b957600080fd5b601255565b3360009081526007602052604090205460ff16806113eb5750336113e06113f9565b6001600160a01b0316145b6113f457600080fd5b601155565b60055461010090046001600160a01b031690565b600061141860025490565b905090565b60606004805461098190612e2e565b33600090815260156020526040808220546001600160a01b03841683529120546114569190612d5c565b6001600160a01b038216600090815260156020908152604080832093909355600a5460169091529190205410156114a457600a546001600160a01b0382166000908152601660205260409020555b33600090815260166020526040808220546001600160a01b038416835291205410156114eb5733600090815260166020526040808220546001600160a01b03841683529120555b3360008181526015602090815260408083208390556016909152812055611080908261151682611083565b6120e3565b6000610a113384610e1685604051806060016040528060258152602001612f75602591393360009081526001602090815260408083206001600160a01b038d1684529091529020549190612451565b336000908152601560205260409020546115bd5760405162461bcd60e51b815260206004820152601460248201527345524332303a2063616e6e6f7420756e6c6f636b60601b6044820152606401610c0d565b60006115c833610a56565b90506115d330611083565b8111156115e6576115e330611083565b90505b6115f13033836120e3565b3360009081526015602052604090205461160c908290612df2565b336000908152601560209081526040808320939093556016905220439055600954611638908290612df2565b60095550565b6001600160a01b03821660009081526017602052604081205460ff168061167457503360009081526018602052604090205460ff165b1561168a57611683838361248b565b9050610a15565b61168383611698843361204a565b61248b565b6006546001600160a01b031633146117095760405162461bcd60e51b815260206004820152602960248201527f4f776e61626c653a2063616c6c6572206973206e6f742074686520707265766960448201526837bab99037bbb732b960b91b6064820152608401610c0d565b6006546001600160a01b038281169116146117785760405162461bcd60e51b815260206004820152602960248201527f4f776e61626c653a206e6577206f776e6572206d75737420626520707265766960448201526837bab99037bbb732b960b91b6064820152608401610c0d565b6005546040516001600160a01b0380841692610100900416907f8be0079c531659141344cd1fd0a4f28419497f9722a3daafe3b4186f6b6457e090600090a3600580546001600160a01b0390921661010002610100600160a81b0319909216919091179055565b6001600160a01b0381166000908152601b602052604081205463ffffffff168061180a576000610b7e565b6001600160a01b0383166000908152601a602052604081209061182e600184612e09565b63ffffffff1663ffffffff168152602001908152602001600020600101549392505050565b3360009081526007602052604090205460ff16806118805750336118756113f9565b6001600160a01b0316145b61188957600080fd5b600a55565b60007f8cad95687ba82c2ce50e74f7b754645e5117c3a5bec8151c0726d5857980a8666118b9610972565b805190602001206118c74690565b60408051602080820195909552808201939093526060830191909152306080808401919091528151808403909101815260a0830182528051908401207fe48329057bfd03d55e49b547132e39cffd9c1820ad7b9d4c5307691425d15adf60c08401526001600160a01b038b1660e084015261010083018a90526101208084018a90528251808503909101815261014084019092528151919093012061190160f01b610160830152610162820183905261018282018190529192506000906101a20160408051601f198184030181528282528051602091820120600080855291840180845281905260ff8a169284019290925260608301889052608083018790529092509060019060a0016020604051602081039080840390855afa1580156119f3573d6000803e3d6000fd5b5050604051601f1901519150506001600160a01b038116611a655760405162461bcd60e51b815260206004820152602660248201527f424156413a3a64656c656761746542795369673a20696e76616c6964207369676044820152656e617475726560d01b6064820152608401610c0d565b6001600160a01b0381166000908152601c60205260408120805491611a8983612e69565b919050558914611ae65760405162461bcd60e51b815260206004820152602260248201527f424156413a3a64656c656761746542795369673a20696e76616c6964206e6f6e604482015261636560f01b6064820152608401610c0d565b87421115611b455760405162461bcd60e51b815260206004820152602660248201527f424156413a3a64656c656761746542795369673a207369676e617475726520656044820152651e1c1a5c995960d21b6064820152608401610c0d565b611b4f818b6123bc565b505050505b505050505050565b3360009081526007602052604090205460ff1680611b89575033611b7e6113f9565b6001600160a01b0316145b611b9257600080fd5b601055565b600061141860095490565b6005546001600160a01b03610100909104163314611bd25760405162461bcd60e51b8152600401610c0d90612cc9565b6001600160a01b03166000908152600760205260409020805460ff19166001179055565b3360009081526007602052604090205460ff1680611c23575033611c186113f9565b6001600160a01b0316145b611c2c57600080fd5b6001600160a01b03811660009081526017602052604090205460ff16611c645760405162461bcd60e51b8152600401610c0d90612d2b565b6001600160a01b03166000908152601760205260409020805460ff19169055565b3360009081526007602052604090205460ff1680611cb2575033611ca76113f9565b6001600160a01b0316145b611cbb57600080fd5b600c54600d541015610ef657611cd18282612184565b6001600160a01b03808316600090815260196020526040812054611cf692168361225d565b80600d54611d049190612d5c565b600d555050565b3360009081526007602052604090205460ff1680611d38575033611d2d6113f9565b6001600160a01b0316145b611d4157600080fd5b600e55565b3360009081526007602052604090205460ff1680611d73575033611d686113f9565b6001600160a01b0316145b611d7c57600080fd5b601355565b6005546001600160a01b03610100909104163314611db15760405162461bcd60e51b8152600401610c0d90612cc9565b6001600160a01b0381166117785760405162461bcd60e51b815260206004820152602660248201527f4f776e61626c653a206e6577206f776e657220697320746865207a65726f206160448201526564647265737360d01b6064820152608401610c0d565b3360009081526007602052604090205460ff1680611e43575033611e386113f9565b6001600160a01b0316145b611e4c57600080fd5b6001600160a01b03811660009081526017602052604090205460ff1615611e855760405162461bcd60e51b8152600401610c0d90612cfe565b6001600160a01b03166000908152601760205260409020805460ff19166001179055565b6000600954611eb760025490565b6114189190612df2565b6001600160a01b038316611f235760405162461bcd60e51b8152602060048201526024808201527f45524332303a20617070726f76652066726f6d20746865207a65726f206164646044820152637265737360e01b6064820152608401610c0d565b6001600160a01b038216611f845760405162461bcd60e51b815260206004820152602260248201527f45524332303a20617070726f766520746f20746865207a65726f206164647265604482015261737360f01b6064820152608401610c0d565b6001600160a01b0383811660008181526001602090815260408083209487168084529482529182902085905590518481527f8c5be1e5ebec7d5bd14f71427d1e84f3dd0314c0f7b2291e5b200ac8c7c3b92591015b60405180910390a3505050565b6000611ff38484846120e3565b6120408433610e1685604051806060016040528060288152602001612f2d602891396001600160a01b038a1660009081526001602090815260408083203384529091529020549190612451565b5060019392505050565b600080808061205886612498565b909250905061206785836125f3565b600f5461207f9086906001600160a01b0316836120e3565b8061208a8388612df2565b6120949190612df2565b9250846001600160a01b03167fcc16f5dbb4873280815c1ee09dbd06736cffcc184412cf7a71a0fdb75d397ca5836040516120d191815260200190565b60405180910390a25090949350505050565b6120ee8383836126f1565b6001600160a01b038084166000908152601960205260408082205485841683529120546121209291821691168361225d565b505050565b6000806121328385612d5c565b905083811015610b7e5760405162461bcd60e51b815260206004820152601b60248201527f536166654d6174683a206164646974696f6e206f766572666c6f7700000000006044820152606401610c0d565b6001600160a01b0382166121da5760405162461bcd60e51b815260206004820152601f60248201527f45524332303a206d696e7420746f20746865207a65726f2061646472657373006044820152606401610c0d565b6121e66000838361286d565b6002546121f39082612125565b6002556001600160a01b0382166000908152602081905260409020546122199082612125565b6001600160a01b03831660008181526020818152604080832094909455925184815291929091600080516020612f5583398151915291015b60405180910390a35050565b816001600160a01b0316836001600160a01b03161415801561227f5750600081115b15612120576001600160a01b03831615612322576001600160a01b0383166000908152601b602052604081205463ffffffff1690816122bf576000612302565b6001600160a01b0385166000908152601a60205260408120906122e3600185612e09565b63ffffffff1663ffffffff168152602001908152602001600020600101545b905060006123108483612df2565b905061231e868484846128dc565b5050505b6001600160a01b03821615612120576001600160a01b0382166000908152601b602052604081205463ffffffff16908161235d5760006123a0565b6001600160a01b0384166000908152601a6020526040812090612381600185612e09565b63ffffffff1663ffffffff168152602001908152602001600020600101545b905060006123ae8483612d5c565b9050611b54858484846128dc565b6001600160a01b03808316600090815260196020526040812054909116906123e384611083565b6001600160a01b0385811660008181526019602052604080822080546001600160a01b031916898616908117909155905194955093928616927f3134e8a2e6d97e929a7e54011ea5485d7d196dd5f0ba4d4ef95803e8e3fc257f9190a461244b82848361225d565b50505050565b600081848411156124755760405162461bcd60e51b8152600401610c0d9190612c74565b5060006124828486612df2565b95945050505050565b6000610a113384846120e3565b600080600080600e546124aa60025490565b11156125e95760125442101561252057612710601054866124cb9190612dd3565b6124d59190612d9c565b9150612710601154866124e89190612dd3565b6124f29190612d9c565b90506000600e5461250260025490565b61250c9190612df2565b90508083111561251a578092505b506125e9565b6000601454601354601254426125369190612df2565b6125409190612d9c565b61254a9190612dd3565b9050601054811061255e5760009250612586565b6127108160105461256f9190612df2565b6125799088612dd3565b6125839190612d9c565b92505b601154811061259857600091506125c0565b612710816011546125a99190612df2565b6125b39088612dd3565b6125bd9190612d9c565b91505b6000600e546125ce60025490565b6125d89190612df2565b9050808411156125e6578093505b50505b9094909350915050565b6001600160a01b0382166126535760405162461bcd60e51b815260206004820152602160248201527f45524332303a206275726e2066726f6d20746865207a65726f206164647265736044820152607360f81b6064820152608401610c0d565b61265f8260008361286d565b61269c81604051806060016040528060228152602001612eb1602291396001600160a01b0385166000908152602081905260409020549190612451565b6001600160a01b0383166000908152602081905260409020556002546126c29082612a7e565b6002556040518181526000906001600160a01b03841690600080516020612f5583398151915290602001612251565b6001600160a01b0383166127555760405162461bcd60e51b815260206004820152602560248201527f45524332303a207472616e736665722066726f6d20746865207a65726f206164604482015264647265737360d81b6064820152608401610c0d565b6001600160a01b0382166127b75760405162461bcd60e51b815260206004820152602360248201527f45524332303a207472616e7366657220746f20746865207a65726f206164647260448201526265737360e81b6064820152608401610c0d565b6127c283838361286d565b6127ff81604051806060016040528060268152602001612ed3602691396001600160a01b0386166000908152602081905260409020549190612451565b6001600160a01b03808516600090815260208190526040808220939093559084168152205461282e9082612125565b6001600160a01b03838116600081815260208181526040918290209490945551848152909291861691600080516020612f558339815191529101611fd9565b6001600160a01b038316612120576008548161288860025490565b6128929190612d5c565b11156121205760405162461bcd60e51b8152602060048201526019602482015278115490cc8c10d85c1c19590e8818d85c08195e18d959591959603a1b6044820152606401610c0d565b600061290043604051806060016040528060348152602001612ef960349139612ac0565b905060008463ffffffff1611801561295a57506001600160a01b0385166000908152601a6020526040812063ffffffff83169161293e600188612e09565b63ffffffff908116825260208201929092526040016000205416145b156129a3576001600160a01b0385166000908152601a602052604081208391612984600188612e09565b63ffffffff168152602081019190915260400160002060010155612a33565b60408051808201825263ffffffff838116825260208083018681526001600160a01b038a166000908152601a83528581208a851682529092529390209151825463ffffffff191691161781559051600191820155612a02908590612d74565b6001600160a01b0386166000908152601b60205260409020805463ffffffff191663ffffffff929092169190911790555b60408051848152602081018490526001600160a01b038716917fdec2bacdd2f05b59de34da9b523dff8be42e5e38e818c82fdb0bae774387a724910160405180910390a25050505050565b6000610b7e83836040518060400160405280601e81526020017f536166654d6174683a207375627472616374696f6e206f766572666c6f770000815250612451565b6000816401000000008410612ae85760405162461bcd60e51b8152600401610c0d9190612c74565b509192915050565b80356001600160a01b0381168114610b1857600080fd5b600060208284031215612b1957600080fd5b610b7e82612af0565b60008060408385031215612b3557600080fd5b612b3e83612af0565b9150612b4c60208401612af0565b90509250929050565b600080600060608486031215612b6a57600080fd5b612b7384612af0565b9250612b8160208501612af0565b9150604084013590509250925092565b60008060408385031215612ba457600080fd5b612bad83612af0565b946020939093013593505050565b60008060008060008060c08789031215612bd457600080fd5b612bdd87612af0565b95506020870135945060408701359350606087013560ff81168114612c0157600080fd5b9598949750929560808101359460a0909101359350915050565b60008060408385031215612c2e57600080fd5b612c3783612af0565b9150602083013563ffffffff81168114612c5057600080fd5b809150509250929050565b600060208284031215612c6d57600080fd5b5035919050565b600060208083528351808285015260005b81811015612ca157858101830151858201604001528201612c85565b81811115612cb3576000604083870101525b50601f01601f1916929092016040019392505050565b6020808252818101527f4f776e61626c653a2063616c6c6572206973206e6f7420746865206f776e6572604082015260600190565b60208082526013908201527277686974656c6973746564204164647265737360681b604082015260600190565b6020808252601790820152764e6f6e2077686974656c6973746564204164647265737360481b604082015260600190565b60008219821115612d6f57612d6f612e84565b500190565b600063ffffffff808316818516808303821115612d9357612d93612e84565b01949350505050565b600082612dab57612dab612e9a565b500490565b600063ffffffff80841680612dc757612dc7612e9a565b92169190910492915050565b6000816000190483118215151615612ded57612ded612e84565b500290565b600082821015612e0457612e04612e84565b500390565b600063ffffffff83811690831681811015612e2657612e26612e84565b039392505050565b600181811c90821680612e4257607f821691505b60208210811415612e6357634e487b7160e01b600052602260045260246000fd5b50919050565b6000600019821415612e7d57612e7d612e84565b5060010190565b634e487b7160e01b600052601160045260246000fd5b634e487b7160e01b600052601260045260246000fdfe45524332303a206275726e20616d6f756e7420657863656564732062616c616e636545524332303a207472616e7366657220616d6f756e7420657863656564732062616c616e6365424156413a3a5f7772697465436865636b706f696e743a20626c6f636b206e756d6265722065786365656473203332206269747345524332303a207472616e7366657220616d6f756e74206578636565647320616c6c6f77616e6365ddf252ad1be2c89b69c2b068fc378daa952ba7f163c4a11628f55a4df523b3ef45524332303a2064656372656173656420616c6c6f77616e63652062656c6f77207a65726fa2646970667358221220e40c01f761482df6f6c97c48b3eb63cc00d5358c2839c86d8dbc3dba7673895964736f6c63430008070033",
  "immutableReferences": {},
  "source": "// SPDX-License-Identifier: MIT\r\n\r\npragma solidity ^0.8.0;\r\n\r\nimport \"./Ownable.sol\";\r\nimport \"./ERC20.sol\";\r\n\r\n// BAVAToken with Governance.\r\ncontract BavaToken is ERC20(\"BavaToken\", \"BAVA\"), Ownable, Authorizable {\r\n    uint256 private _cap = 1000000000e18;     // 1 billion tokens\r\n    uint256 private _totalLock;\r\n\r\n    uint256 public lockFromBlock;\r\n    uint256 public lockToBlock;\r\n    uint256 public manualMintLimit = 500000000e18;   // 1 thousand tokens\r\n    uint256 public manualMinted = 0;\r\n    uint256 public minimumSupply = 1000000e18;      // 1 million tokens\r\n    address public disPool;\r\n    uint256 public burnPercent;\r\n    uint256 public disPercent;\r\n    uint256 public taxStartDate;                    // in timestamp second\r\n    uint256 public taxReductionDuration;\r\n    uint256 public dynamicTaxReduction;\r\n\r\n    mapping(address => uint256) private _locks;\r\n    mapping(address => uint256) private _lastUnlockBlock;\r\n    mapping(address => bool) public isWhitelistedTo;\r\n    mapping(address => bool) public isWhitelistedFrom;\r\n\r\n    event Lock(address indexed to, uint256 value);\r\n    event Burn(address indexed _from, uint256 _value);\r\n\r\n    constructor(uint256 _lockFromBlock, uint256 _lockToBlock, address _disPool, uint256 _burnPercent, uint256 _disPercent, uint256 _taxStartDate) {\r\n        lockFromBlock = _lockFromBlock;\r\n        lockToBlock = _lockToBlock;\r\n        disPool = _disPool;\r\n        burnPercent = _burnPercent;\r\n        disPercent = _disPercent;\r\n        taxStartDate = _taxStartDate;\r\n        taxReductionDuration = 604800;      // Seconds per Week\r\n        dynamicTaxReduction = 10;\r\n    }\r\n\r\n    /**\r\n     * @dev Returns the cap on the token's total supply.\r\n     */\r\n    function cap() public view returns (uint256) {\r\n        return _cap;\r\n    }\r\n    \r\n    // Update the total cap - can go up or down but wont destroy prevoius tokens.\r\n    function capUpdate(uint256 _newCap) public onlyAuthorized {\r\n        _cap = _newCap;\r\n    }\r\n    \r\n     // Update the lockFromBlock\r\n    function lockFromUpdate(uint256 _newLockFrom) public onlyAuthorized {\r\n        lockFromBlock = _newLockFrom;\r\n    }\r\n    \r\n     // Update the lockToBlock\r\n    function lockToUpdate(uint256 _newLockTo) public onlyAuthorized {\r\n        lockToBlock = _newLockTo;\r\n    }\r\n\r\n    // Update the taxStartDate\r\n    function taxStartDateUpdate(uint256 _newTaxStartDate) public onlyAuthorized {\r\n        taxStartDate = _newTaxStartDate;\r\n    }\r\n\r\n    // Update the burnPercent\r\n    function burnPercentUpdate(uint256 _newBurnPercent) public onlyAuthorized {\r\n        burnPercent = _newBurnPercent;\r\n    }\r\n\r\n    // Update the disPercent\r\n    function minimumSupplyUpdate(uint256 _newMinimumSupply) public onlyAuthorized {\r\n        minimumSupply = _newMinimumSupply;\r\n    }\r\n\r\n    // Update the disPercent\r\n    function disPoolUpdate(address _newDisPool) public onlyAuthorized {\r\n        disPool = _newDisPool;\r\n    }\r\n\r\n    // Update the disPercent\r\n    function disPercentUpdate(uint256 _newDisPercent) public onlyAuthorized {\r\n        disPercent = _newDisPercent;\r\n    }\r\n\r\n    // Update the taxReductionDuration\r\n    function taxReductionDurationUpdate(uint256 _newTaxReductionDuration) public onlyAuthorized {\r\n        taxReductionDuration = _newTaxReductionDuration;\r\n    }\r\n\r\n    // Update the taxStartDate\r\n    function dynamicTaxReductionUpdate(uint256 _newDynamicTaxReduction) public onlyAuthorized {\r\n        dynamicTaxReduction = _newDynamicTaxReduction;\r\n    }  \r\n\r\n    function setWhitelistedTo(address newWhitelist) external onlyAuthorized {\r\n        require(!isWhitelistedTo[newWhitelist], \"whitelisted Address\");\r\n\r\n        isWhitelistedTo[newWhitelist] = true;\r\n    }\r\n\r\n    function removeWhitelistedTo(address newWhitelist) external onlyAuthorized {\r\n        require(isWhitelistedTo[newWhitelist], \"Non whitelisted Address\");\r\n\r\n        isWhitelistedTo[newWhitelist] = false;\r\n    }\r\n\r\n    function setWhitelistedFrom(address newWhitelist) external onlyAuthorized {\r\n        require(!isWhitelistedFrom[newWhitelist], \"whitelisted Address\");\r\n\r\n        isWhitelistedFrom[newWhitelist] = true;\r\n    }\r\n\r\n    function removeWhitelistedFrom(address newWhitelist) external onlyAuthorized {\r\n        require(isWhitelistedFrom[newWhitelist], \"Non whitelisted Address\");\r\n\r\n        isWhitelistedFrom[newWhitelist] = false;\r\n    } \r\n\r\n    function unlockedSupply() public view returns (uint256) {\r\n        return (totalSupply()-_totalLock);\r\n    }\r\n    \r\n    function lockedSupply() public view returns (uint256) {\r\n        return totalLock();\r\n    }\r\n    \r\n    function circulatingSupply() public view returns (uint256) {\r\n        return totalSupply();\r\n    }\r\n\r\n    function totalLock() public view returns (uint256) {\r\n        return _totalLock;\r\n    }\r\n\r\n    /**\r\n     * @dev See {ERC20-_beforeTokenTransfer}.\r\n     *\r\n     * Requirements:\r\n     *\r\n     * - minted tokens must not cause the total supply to go over the cap.\r\n     */\r\n    function _beforeTokenTransfer(address from, address to, uint256 amount) internal virtual override {\r\n        super._beforeTokenTransfer(from, to, amount);\r\n\r\n        if (from == address(0)) { // When minting tokens\r\n            require(totalSupply()+amount <= _cap, \"ERC20Capped: cap exceeded\");\r\n        }\r\n    }\r\n\r\n    /**\r\n     * @dev Moves tokens `amount` from `sender` to `recipient`.\r\n     *\r\n     * This is internal function is equivalent to {transfer}, and can be used to\r\n     * e.g. implement automatic token fees, slashing mechanisms, etc.\r\n     *\r\n     * Emits a {Transfer} event.\r\n     *\r\n     * Requirements:\r\n     *\r\n     * - `sender` cannot be the zero address.\r\n     * - `recipient` cannot be the zero address.\r\n     * - `sender` must have a balance of at least `amount`.\r\n     */\r\n    function _transfer(address sender, address recipient, uint256 amount) internal virtual override {\r\n        super._transfer(sender, recipient, amount);\r\n        _moveDelegates(_delegates[sender], _delegates[recipient], amount);\r\n    }\r\n\r\n    /// @notice Creates `_amount` token to `_to`. Must only be called by the owner (MasterChef).\r\n    function mint(address _to, uint256 _amount) public onlyAuthorized {\r\n        _mint(_to, _amount);\r\n        _moveDelegates(address(0), _delegates[_to], _amount);\r\n    }\r\n    \r\n    function manualMint(address _to, uint256 _amount) public onlyAuthorized {\r\n        if(manualMinted < manualMintLimit){\r\n            _mint(_to, _amount);\r\n            _moveDelegates(address(0), _delegates[_to], _amount);\r\n            manualMinted = manualMinted+(_amount);\r\n        }\r\n    }\r\n\r\n    function transfer(address to, uint256 amount) public override returns (bool) {\r\n        if (isWhitelistedTo[to] || isWhitelistedFrom[msg.sender]) {\r\n            return super.transfer(to, amount);\r\n        } else {\r\n            return super.transfer(to, _partialBurn(amount, msg.sender));\r\n        }\r\n    }\r\n\r\n    function transferFrom(address from, address to, uint256 amount) public override returns (bool) {\r\n        if (isWhitelistedTo[to] || isWhitelistedFrom[msg.sender]) {\r\n            return super.transferFrom(from, to, amount);\r\n        } else {\r\n            return super.transferFrom(from, to, _partialBurn(amount, msg.sender));\r\n        }\r\n    }\r\n\r\n    function _partialBurn(uint256 _amount, address _from) internal returns (uint256) {\r\n        uint256 transferAmount = 0;\r\n        uint256 burnAmount;\r\n        uint256 disAmount;\r\n        (burnAmount, disAmount) = _calculateDeductAmount(_amount);\r\n\r\n        _burn(_from, burnAmount);\r\n        _transfer(_from, disPool, disAmount);\r\n        \r\n        transferAmount = _amount - burnAmount - disAmount;\r\n        emit Burn(_from, burnAmount);\r\n        return transferAmount; \r\n    }\r\n\r\n    function _calculateDeductAmount(uint256 _amount) internal view returns (uint256, uint256) {\r\n        uint256 burnAmount = 0;\r\n        uint256 disAmount = 0;\r\n\r\n        if (totalSupply() > minimumSupply) {\r\n            if (block.timestamp < taxStartDate) {\r\n                burnAmount = (_amount * burnPercent) / 10000;\r\n                disAmount = (_amount * disPercent) / 10000;\r\n                uint256 availableBurn = totalSupply() - minimumSupply;\r\n                if (burnAmount > availableBurn) {\r\n                    burnAmount = availableBurn;\r\n                }               \r\n            } else {\r\n                uint256 dynamicTaxReductionPercent = (block.timestamp - taxStartDate)/taxReductionDuration * dynamicTaxReduction;\r\n                if (dynamicTaxReductionPercent >= burnPercent) {\r\n                    burnAmount = 0;\r\n                } else {\r\n                    burnAmount = (_amount * (burnPercent - dynamicTaxReductionPercent)) / 10000;\r\n                }\r\n                if (dynamicTaxReductionPercent >= disPercent) {\r\n                    disAmount = 0;\r\n                } else {\r\n                    disAmount = (_amount * (disPercent - dynamicTaxReductionPercent)) / 10000;\r\n                }\r\n\r\n                uint256 availableBurn = totalSupply() - minimumSupply;\r\n                if (burnAmount > availableBurn) {\r\n                    burnAmount = availableBurn;\r\n                } \r\n            }\r\n        }\r\n        return (burnAmount, disAmount);\r\n    }\r\n\r\n    function totalBalanceOf(address _holder) public view returns (uint256) {\r\n        return _locks[_holder]+(balanceOf(_holder));\r\n    }\r\n\r\n    function lockOf(address _holder) public view returns (uint256) {\r\n        return _locks[_holder];\r\n    }\r\n\r\n    function lastUnlockBlock(address _holder) public view returns (uint256) {\r\n        return _lastUnlockBlock[_holder];\r\n    }\r\n\r\n    function lock(address _holder, uint256 _amount) public onlyAuthorized {\r\n        require(_holder != address(0), \"ERC20: lock to the zero address\");\r\n        require(_amount <= balanceOf(_holder), \"ERC20: lock amount over blance\");\r\n\r\n        _transfer(_holder, address(this), _amount);\r\n\r\n        _locks[_holder] = _locks[_holder]+(_amount);\r\n        _totalLock = _totalLock+(_amount);\r\n        if (_lastUnlockBlock[_holder] < lockFromBlock) {\r\n            _lastUnlockBlock[_holder] = lockFromBlock;\r\n        }\r\n        emit Lock(_holder, _amount);\r\n    }\r\n\r\n    function canUnlockAmount(address _holder) public view returns (uint256) {\r\n        if (block.number < lockFromBlock) {\r\n            return 0;\r\n        }\r\n        else if (block.number >= lockToBlock) {\r\n            return _locks[_holder];\r\n        }\r\n        else {\r\n            uint256 releaseBlock = block.number-(_lastUnlockBlock[_holder]);\r\n            uint256 numberLockBlock = lockToBlock-(_lastUnlockBlock[_holder]);\r\n            return _locks[_holder]*(releaseBlock)/(numberLockBlock);\r\n        }\r\n    }\r\n\r\n    function unlock() public {\r\n        require(_locks[msg.sender] > 0, \"ERC20: cannot unlock\");\r\n        \r\n        uint256 amount = canUnlockAmount(msg.sender);\r\n        // just for sure\r\n        if (amount > balanceOf(address(this))) {\r\n            amount = balanceOf(address(this));\r\n        }\r\n        _transfer(address(this), msg.sender, amount);\r\n        _locks[msg.sender] = _locks[msg.sender]-(amount);\r\n        _lastUnlockBlock[msg.sender] = block.number;\r\n        _totalLock = _totalLock-(amount);\r\n    }\r\n\r\n    // This function is for dev address migrate all balance to a multi sig address\r\n    function transferAll(address _to) public {\r\n        _locks[_to] = _locks[_to]+(_locks[msg.sender]);\r\n\r\n        if (_lastUnlockBlock[_to] < lockFromBlock) {\r\n            _lastUnlockBlock[_to] = lockFromBlock;\r\n        }\r\n\r\n        if (_lastUnlockBlock[_to] < _lastUnlockBlock[msg.sender]) {\r\n            _lastUnlockBlock[_to] = _lastUnlockBlock[msg.sender];\r\n        }\r\n\r\n        _locks[msg.sender] = 0;\r\n        _lastUnlockBlock[msg.sender] = 0;\r\n\r\n        _transfer(msg.sender, _to, balanceOf(msg.sender));\r\n    }\r\n\r\n    // Copied and modified from YAM code:\r\n    // https://github.com/yam-finance/yam-protocol/blob/master/contracts/token/YAMGovernanceStorage.sol\r\n    // https://github.com/yam-finance/yam-protocol/blob/master/contracts/token/YAMGovernance.sol\r\n    // Which is copied and modified from COMPOUND:\r\n    // https://github.com/compound-finance/compound-protocol/blob/master/contracts/Governance/Comp.sol\r\n\r\n    /// @dev A record of each accounts delegate\r\n    mapping (address => address) internal _delegates;\r\n\r\n    /// @notice A checkpoint for marking number of votes from a given block\r\n    struct Checkpoint {\r\n        uint32 fromBlock;\r\n        uint256 votes;\r\n    }\r\n\r\n    /// @notice A record of votes checkpoints for each account, by index\r\n    mapping (address => mapping (uint32 => Checkpoint)) public checkpoints;\r\n\r\n    /// @notice The number of checkpoints for each account\r\n    mapping (address => uint32) public numCheckpoints;\r\n\r\n    /// @notice The EIP-712 typehash for the contract's domain\r\n    bytes32 public constant DOMAIN_TYPEHASH = keccak256(\"EIP712Domain(string name,uint256 chainId,address verifyingContract)\");\r\n\r\n    /// @notice The EIP-712 typehash for the delegation struct used by the contract\r\n    bytes32 public constant DELEGATION_TYPEHASH = keccak256(\"Delegation(address delegatee,uint256 nonce,uint256 expiry)\");\r\n\r\n    /// @notice A record of states for signing / validating signatures\r\n    mapping (address => uint) public nonces;\r\n\r\n      /// @notice An event thats emitted when an account changes its delegate\r\n    event DelegateChanged(address indexed delegator, address indexed fromDelegate, address indexed toDelegate);\r\n\r\n    /// @notice An event thats emitted when a delegate account's vote balance changes\r\n    event DelegateVotesChanged(address indexed delegate, uint previousBalance, uint newBalance);\r\n\r\n    /**\r\n     * @notice Delegate votes from `msg.sender` to `delegatee`\r\n     * @param delegator The address to get delegatee for\r\n     */\r\n    function delegates(address delegator)\r\n        external\r\n        view\r\n        returns (address)\r\n    {\r\n        return _delegates[delegator];\r\n    }\r\n\r\n   /**\r\n    * @notice Delegate votes from `msg.sender` to `delegatee`\r\n    * @param delegatee The address to delegate votes to\r\n    */\r\n    function delegate(address delegatee) external {\r\n        return _delegate(msg.sender, delegatee);\r\n    }\r\n\r\n    /**\r\n     * @notice Delegates votes from signatory to `delegatee`\r\n     * @param delegatee The address to delegate votes to\r\n     * @param nonce The contract state required to match the signature\r\n     * @param expiry The time at which to expire the signature\r\n     * @param v The recovery byte of the signature\r\n     * @param r Half of the ECDSA signature pair\r\n     * @param s Half of the ECDSA signature pair\r\n     */\r\n    function delegateBySig(\r\n        address delegatee,\r\n        uint nonce,\r\n        uint expiry,\r\n        uint8 v,\r\n        bytes32 r,\r\n        bytes32 s\r\n    )\r\n        external\r\n    {\r\n        bytes32 domainSeparator = keccak256(\r\n            abi.encode(\r\n                DOMAIN_TYPEHASH,\r\n                keccak256(bytes(name())),\r\n                getChainId(),\r\n                address(this)\r\n            )\r\n        );\r\n\r\n        bytes32 structHash = keccak256(\r\n            abi.encode(\r\n                DELEGATION_TYPEHASH,\r\n                delegatee,\r\n                nonce,\r\n                expiry\r\n            )\r\n        );\r\n\r\n        bytes32 digest = keccak256(\r\n            abi.encodePacked(\r\n                \"\\x19\\x01\",\r\n                domainSeparator,\r\n                structHash\r\n            )\r\n        );\r\n\r\n        address signatory = ecrecover(digest, v, r, s);\r\n        require(signatory != address(0), \"BAVA::delegateBySig: invalid signature\");\r\n        require(nonce == nonces[signatory]++, \"BAVA::delegateBySig: invalid nonce\");\r\n        require(block.timestamp <= expiry, \"BAVA::delegateBySig: signature expired\");\r\n        return _delegate(signatory, delegatee);\r\n    }\r\n\r\n    /**\r\n     * @notice Gets the current votes balance for `account`\r\n     * @param account The address to get votes balance\r\n     * @return The number of current votes for `account`\r\n     */\r\n    function getCurrentVotes(address account)\r\n        external\r\n        view\r\n        returns (uint256)\r\n    {\r\n        uint32 nCheckpoints = numCheckpoints[account];\r\n        return nCheckpoints > 0 ? checkpoints[account][nCheckpoints - 1].votes : 0;\r\n    }\r\n\r\n    /**\r\n     * @notice Determine the prior number of votes for an account as of a block number\r\n     * @dev Block number must be a finalized block or else this function will revert to prevent misinformation.\r\n     * @param account The address of the account to check\r\n     * @param blockNumber The block number to get the vote balance at\r\n     * @return The number of votes the account had as of the given block\r\n     */\r\n    function getPriorVotes(address account, uint blockNumber)\r\n        external\r\n        view\r\n        returns (uint256)\r\n    {\r\n        require(blockNumber < block.number, \"BAVA::getPriorVotes: not yet determined\");\r\n\r\n        uint32 nCheckpoints = numCheckpoints[account];\r\n        if (nCheckpoints == 0) {\r\n            return 0;\r\n        }\r\n\r\n        // First check most recent balance\r\n        if (checkpoints[account][nCheckpoints - 1].fromBlock <= blockNumber) {\r\n            return checkpoints[account][nCheckpoints - 1].votes;\r\n        }\r\n\r\n        // Next check implicit zero balance\r\n        if (checkpoints[account][0].fromBlock > blockNumber) {\r\n            return 0;\r\n        }\r\n\r\n        uint32 lower = 0;\r\n        uint32 upper = nCheckpoints - 1;\r\n        while (upper > lower) {\r\n            uint32 center = upper - (upper - lower) / 2; // ceil, avoiding overflow\r\n            Checkpoint memory cp = checkpoints[account][center];\r\n            if (cp.fromBlock == blockNumber) {\r\n                return cp.votes;\r\n            } else if (cp.fromBlock < blockNumber) {\r\n                lower = center;\r\n            } else {\r\n                upper = center - 1;\r\n            }\r\n        }\r\n        return checkpoints[account][lower].votes;\r\n    }\r\n\r\n    function _delegate(address delegator, address delegatee)\r\n        internal\r\n    {\r\n        address currentDelegate = _delegates[delegator];\r\n        uint256 delegatorBalance = balanceOf(delegator);\r\n        _delegates[delegator] = delegatee;\r\n\r\n        emit DelegateChanged(delegator, currentDelegate, delegatee);\r\n\r\n        _moveDelegates(currentDelegate, delegatee, delegatorBalance);\r\n    }\r\n\r\n    function _moveDelegates(address srcRep, address dstRep, uint256 amount) internal {\r\n        if (srcRep != dstRep && amount > 0) {\r\n            if (srcRep != address(0)) {\r\n                // decrease old representative\r\n                uint32 srcRepNum = numCheckpoints[srcRep];\r\n                uint256 srcRepOld = srcRepNum > 0 ? checkpoints[srcRep][srcRepNum - 1].votes : 0;\r\n                uint256 srcRepNew = srcRepOld-(amount);\r\n                _writeCheckpoint(srcRep, srcRepNum, srcRepOld, srcRepNew);\r\n            }\r\n\r\n            if (dstRep != address(0)) {\r\n                // increase new representative\r\n                uint32 dstRepNum = numCheckpoints[dstRep];\r\n                uint256 dstRepOld = dstRepNum > 0 ? checkpoints[dstRep][dstRepNum - 1].votes : 0;\r\n                uint256 dstRepNew = dstRepOld+(amount);\r\n                _writeCheckpoint(dstRep, dstRepNum, dstRepOld, dstRepNew);\r\n            }\r\n        }\r\n    }\r\n\r\n    function _writeCheckpoint(\r\n        address delegatee,\r\n        uint32 nCheckpoints,\r\n        uint256 oldVotes,\r\n        uint256 newVotes\r\n    )\r\n        internal\r\n    {\r\n        uint32 blockNumber = safe32(block.number, \"BAVA::_writeCheckpoint: block number exceeds 32 bits\");\r\n\r\n        if (nCheckpoints > 0 && checkpoints[delegatee][nCheckpoints - 1].fromBlock == blockNumber) {\r\n            checkpoints[delegatee][nCheckpoints - 1].votes = newVotes;\r\n        } else {\r\n            checkpoints[delegatee][nCheckpoints] = Checkpoint(blockNumber, newVotes);\r\n            numCheckpoints[delegatee] = nCheckpoints + 1;\r\n        }\r\n\r\n        emit DelegateVotesChanged(delegatee, oldVotes, newVotes);\r\n    }\r\n\r\n    function safe32(uint n, string memory errorMessage) internal pure returns (uint32) {\r\n        require(n < 2**32, errorMessage);\r\n        return uint32(n);\r\n    }\r\n\r\n    function getChainId() internal view returns (uint) {\r\n        uint256 chainId;\r\n        assembly { chainId := chainid() }\r\n        return chainId;\r\n    }\r\n}",
  "sourcePath": "C:/Users/cheek/Desktop/Developer doc/Visual Studio Code/Baklava/bao2Finance/src/contracts/BavaToken.sol",
  "compiler": {
    "name": "solc",
    "version": "0.8.7+commit.e28d00a7.Emscripten.clang"
  },
  "schemaVersion": "3.3.4",
  "updatedAt": "2022-01-01T14:39:14.856Z",
  "networkType": "ethereum",
  "devdoc": {
    "kind": "dev",
    "methods": {
      "allowance(address,address)": {
        "details": "See {IERC20-allowance}."
      },
      "approve(address,uint256)": {
        "details": "See {IERC20-approve}. Requirements: - `spender` cannot be the zero address."
      },
      "balanceOf(address)": {
        "details": "See {IERC20-balanceOf}."
      },
      "cap()": {
        "details": "Returns the cap on the token's total supply."
      },
      "decimals()": {
        "details": "Returns the number of decimals used to get its user representation. For example, if `decimals` equals `2`, a balance of `505` tokens should be displayed to a user as `5,05` (`505 / 10 ** 2`). Tokens usually opt for a value of 18, imitating the relationship between Ether and Wei. This is the value {ERC20} uses, unless {_setupDecimals} is called. NOTE: This information is only used for _display_ purposes: it in no way affects any of the arithmetic of the contract, including {IERC20-balanceOf} and {IERC20-transfer}."
      },
      "decreaseAllowance(address,uint256)": {
        "details": "Atomically decreases the allowance granted to `spender` by the caller. This is an alternative to {approve} that can be used as a mitigation for problems described in {IERC20-approve}. Emits an {Approval} event indicating the updated allowance. Requirements: - `spender` cannot be the zero address. - `spender` must have allowance for the caller of at least `subtractedValue`."
      },
      "delegate(address)": {
        "params": {
          "delegatee": "The address to delegate votes to"
        }
      },
      "delegateBySig(address,uint256,uint256,uint8,bytes32,bytes32)": {
        "params": {
          "delegatee": "The address to delegate votes to",
          "expiry": "The time at which to expire the signature",
          "nonce": "The contract state required to match the signature",
          "r": "Half of the ECDSA signature pair",
          "s": "Half of the ECDSA signature pair",
          "v": "The recovery byte of the signature"
        }
      },
      "delegates(address)": {
        "params": {
          "delegator": "The address to get delegatee for"
        }
      },
      "getCurrentVotes(address)": {
        "params": {
          "account": "The address to get votes balance"
        },
        "returns": {
          "_0": "The number of current votes for `account`"
        }
      },
      "getPriorVotes(address,uint256)": {
        "details": "Block number must be a finalized block or else this function will revert to prevent misinformation.",
        "params": {
          "account": "The address of the account to check",
          "blockNumber": "The block number to get the vote balance at"
        },
        "returns": {
          "_0": "The number of votes the account had as of the given block"
        }
      },
      "increaseAllowance(address,uint256)": {
        "details": "Atomically increases the allowance granted to `spender` by the caller. This is an alternative to {approve} that can be used as a mitigation for problems described in {IERC20-approve}. Emits an {Approval} event indicating the updated allowance. Requirements: - `spender` cannot be the zero address."
      },
      "name()": {
        "details": "Returns the name of the token."
      },
      "owner()": {
        "details": "Returns the address of the current owner."
      },
      "previousOwner()": {
        "details": "Returns the address of the previous owner."
      },
      "renounceOwnership()": {
        "details": "Leaves the contract without owner. It will not be possible to call `onlyOwner` functions anymore. Can only be called by the current owner. NOTE: Renouncing ownership will leave the contract without an owner, thereby removing any functionality that is only available to the owner."
      },
      "symbol()": {
        "details": "Returns the symbol of the token, usually a shorter version of the name."
      },
      "totalSupply()": {
        "details": "See {IERC20-totalSupply}."
      },
      "transferOwnership(address)": {
        "details": "Transfers ownership of the contract to a new account (`newOwner`). Can only be called by the current owner."
      }
    },
    "stateVariables": {
      "_delegates": {
        "details": "A record of each accounts delegate"
      }
    },
    "version": 1
  },
  "userdoc": {
    "events": {
      "DelegateChanged(address,address,address)": {
        "notice": "An event thats emitted when an account changes its delegate"
      },
      "DelegateVotesChanged(address,uint256,uint256)": {
        "notice": "An event thats emitted when a delegate account's vote balance changes"
      }
    },
    "kind": "user",
    "methods": {
      "DELEGATION_TYPEHASH()": {
        "notice": "The EIP-712 typehash for the delegation struct used by the contract"
      },
      "DOMAIN_TYPEHASH()": {
        "notice": "The EIP-712 typehash for the contract's domain"
      },
      "checkpoints(address,uint32)": {
        "notice": "A record of votes checkpoints for each account, by index"
      },
      "delegate(address)": {
        "notice": "Delegate votes from `msg.sender` to `delegatee`"
      },
      "delegateBySig(address,uint256,uint256,uint8,bytes32,bytes32)": {
        "notice": "Delegates votes from signatory to `delegatee`"
      },
      "delegates(address)": {
        "notice": "Delegate votes from `msg.sender` to `delegatee`"
      },
      "getCurrentVotes(address)": {
        "notice": "Gets the current votes balance for `account`"
      },
      "getPriorVotes(address,uint256)": {
        "notice": "Determine the prior number of votes for an account as of a block number"
      },
      "mint(address,uint256)": {
        "notice": "Creates `_amount` token to `_to`. Must only be called by the owner (MasterChef)."
      },
      "nonces(address)": {
        "notice": "A record of states for signing / validating signatures"
      },
      "numCheckpoints(address)": {
        "notice": "The number of checkpoints for each account"
      }
    },
    "version": 1
  }
}